{
  "contractName": "VotingSystem",
  "abi": [
    {
      "inputs": [],
      "stateMutability": "nonpayable",
      "type": "constructor"
    },
    {
      "inputs": [
        {
          "internalType": "uint256",
          "name": "",
          "type": "uint256"
        }
      ],
      "name": "Ar",
      "outputs": [
        {
          "internalType": "string",
          "name": "",
          "type": "string"
        }
      ],
      "stateMutability": "view",
      "type": "function",
      "constant": true
    },
    {
      "inputs": [
        {
          "internalType": "uint256",
          "name": "",
          "type": "uint256"
        }
      ],
      "name": "Pr",
      "outputs": [
        {
          "internalType": "string",
          "name": "",
          "type": "string"
        }
      ],
      "stateMutability": "view",
      "type": "function",
      "constant": true
    },
    {
      "inputs": [],
      "name": "Seats",
      "outputs": [
        {
          "internalType": "uint256",
          "name": "",
          "type": "uint256"
        }
      ],
      "stateMutability": "view",
      "type": "function",
      "constant": true
    },
    {
      "inputs": [],
      "name": "admin",
      "outputs": [
        {
          "internalType": "address",
          "name": "",
          "type": "address"
        }
      ],
      "stateMutability": "view",
      "type": "function",
      "constant": true
    },
    {
      "inputs": [
        {
          "internalType": "string",
          "name": "",
          "type": "string"
        }
      ],
      "name": "areas",
      "outputs": [
        {
          "internalType": "string",
          "name": "name",
          "type": "string"
        },
        {
          "internalType": "string",
          "name": "leadingParty",
          "type": "string"
        },
        {
          "internalType": "uint256",
          "name": "totalVote",
          "type": "uint256"
        }
      ],
      "stateMutability": "view",
      "type": "function",
      "constant": true
    },
    {
      "inputs": [],
      "name": "areasCount",
      "outputs": [
        {
          "internalType": "uint256",
          "name": "",
          "type": "uint256"
        }
      ],
      "stateMutability": "view",
      "type": "function",
      "constant": true
    },
    {
      "inputs": [
        {
          "internalType": "uint256",
          "name": "",
          "type": "uint256"
        }
      ],
      "name": "candidates",
      "outputs": [
        {
          "internalType": "uint256",
          "name": "id",
          "type": "uint256"
        },
        {
          "internalType": "string",
          "name": "name",
          "type": "string"
        },
        {
          "internalType": "string",
          "name": "area",
          "type": "string"
        },
        {
          "internalType": "string",
          "name": "party",
          "type": "string"
        },
        {
          "internalType": "uint256",
          "name": "voteCount",
          "type": "uint256"
        }
      ],
      "stateMutability": "view",
      "type": "function",
      "constant": true
    },
    {
      "inputs": [],
      "name": "candidatesCount",
      "outputs": [
        {
          "internalType": "uint256",
          "name": "",
          "type": "uint256"
        }
      ],
      "stateMutability": "view",
      "type": "function",
      "constant": true
    },
    {
      "inputs": [
        {
          "internalType": "string",
          "name": "",
          "type": "string"
        }
      ],
      "name": "parties",
      "outputs": [
        {
          "internalType": "string",
          "name": "name",
          "type": "string"
        },
        {
          "internalType": "uint256",
          "name": "totalSeatsWon",
          "type": "uint256"
        }
      ],
      "stateMutability": "view",
      "type": "function",
      "constant": true
    },
    {
      "inputs": [],
      "name": "partiesCount",
      "outputs": [
        {
          "internalType": "uint256",
          "name": "",
          "type": "uint256"
        }
      ],
      "stateMutability": "view",
      "type": "function",
      "constant": true
    },
    {
      "inputs": [
        {
          "internalType": "address",
          "name": "",
          "type": "address"
        }
      ],
      "name": "voters",
      "outputs": [
        {
          "internalType": "bool",
          "name": "",
          "type": "bool"
        }
      ],
      "stateMutability": "view",
      "type": "function",
      "constant": true
    },
    {
      "inputs": [],
      "name": "winningParty",
      "outputs": [
        {
          "internalType": "string",
          "name": "",
          "type": "string"
        }
      ],
      "stateMutability": "view",
      "type": "function",
      "constant": true
    },
    {
      "inputs": [
        {
          "internalType": "string",
          "name": "_name",
          "type": "string"
        },
        {
          "internalType": "string",
          "name": "_area",
          "type": "string"
        },
        {
          "internalType": "string",
          "name": "_party",
          "type": "string"
        }
      ],
      "name": "addCandidate",
      "outputs": [],
      "stateMutability": "nonpayable",
      "type": "function"
    },
    {
      "inputs": [
        {
          "internalType": "uint256",
          "name": "_candidateId",
          "type": "uint256"
        }
      ],
      "name": "removeCandidate",
      "outputs": [],
      "stateMutability": "nonpayable",
      "type": "function"
    },
    {
      "inputs": [
        {
          "internalType": "uint256",
          "name": "_candidateId",
          "type": "uint256"
        }
      ],
      "name": "vote",
      "outputs": [],
      "stateMutability": "nonpayable",
      "type": "function"
    },
    {
      "inputs": [],
      "name": "calculateWinner",
      "outputs": [],
      "stateMutability": "nonpayable",
      "type": "function"
    },
    {
      "inputs": [],
      "name": "getOverallWinningParty",
      "outputs": [
        {
          "internalType": "string",
          "name": "",
          "type": "string"
        },
        {
          "internalType": "uint256",
          "name": "",
          "type": "uint256"
        }
      ],
      "stateMutability": "view",
      "type": "function",
      "constant": true
    }
  ],
  "bytecode": "0x6080604052600060025534801561001557600080fd5b50336000806101000a81548173ffffffffffffffffffffffffffffffffffffffff021916908373ffffffffffffffffffffffffffffffffffffffff160217905550611f31806100656000396000f3fe608060405234801561001057600080fd5b506004361061010b5760003560e01c8063aa09ac3c116100a2578063ca9da69c11610071578063ca9da69c146102d1578063d4a7de3e146102f0578063de0a7af914610322578063ea35e80514610340578063f851a4401461034a5761010b565b8063aa09ac3c14610248578063ad71f8dc14610279578063ae315fe414610295578063c56a3540146102b35761010b565b806385aad0b9116100de57806385aad0b91461019a57806391e48abe146101ca578063a3ec138d146101fa578063a9683ba61461022a5761010b565b80630121b93f1461011057806309e9d7e21461012c5780632d35a8a2146101485780633477ee2e14610166575b600080fd5b61012a60048036038101906101259190611317565b610368565b005b61014660048036038101906101419190611317565b610566565b005b61015061069e565b60405161015d9190611353565b60405180910390f35b610180600480360381019061017b9190611317565b6106a4565b6040516101919594939291906113fe565b60405180910390f35b6101b460048036038101906101af9190611317565b610872565b6040516101c19190611466565b60405180910390f35b6101e460048036038101906101df9190611317565b61091e565b6040516101f19190611466565b60405180910390f35b610214600480360381019061020f91906114e6565b6109ca565b604051610221919061152e565b60405180910390f35b6102326109ea565b60405161023f9190611353565b60405180910390f35b610262600480360381019061025d919061167e565b6109f0565b6040516102709291906116c7565b60405180910390f35b610293600480360381019061028e91906116f7565b610ab2565b005b61029d610e52565b6040516102aa9190611466565b60405180910390f35b6102bb610ee0565b6040516102c89190611353565b60405180910390f35b6102d9610ee6565b6040516102e79291906116c7565b60405180910390f35b61030a6004803603810190610305919061167e565b610f83565b6040516103199392919061179e565b60405180910390f35b61032a6110d3565b6040516103379190611353565b60405180910390f35b6103486110d9565b005b61035261124c565b60405161035f91906117f2565b60405180910390f35b600b60003373ffffffffffffffffffffffffffffffffffffffff1673ffffffffffffffffffffffffffffffffffffffff16815260200190815260200160002060009054906101000a900460ff16156103f5576040517f08c379a00000000000000000000000000000000000000000000000000000000081526004016103ec90611859565b60405180910390fd5b60008111801561040757506008548111155b610446576040517f08c379a000000000000000000000000000000000000000000000000000000000815260040161043d906118c5565b60405180910390fd5b600060056000838152602001908152602001600020905080600401600081548092919061047290611914565b91905055506001600b60003373ffffffffffffffffffffffffffffffffffffffff1673ffffffffffffffffffffffffffffffffffffffff16815260200190815260200160002060006101000a81548160ff02191690831515021790555080600401546006826002016040516104e79190611a5f565b90815260200160405180910390206002015410156105625780600401546006826002016040516105179190611a5f565b908152602001604051809103902060020181905550806003016006826002016040516105439190611a5f565b908152602001604051809103902060010190816105609190611c38565b505b5050565b60008054906101000a900473ffffffffffffffffffffffffffffffffffffffff1673ffffffffffffffffffffffffffffffffffffffff163373ffffffffffffffffffffffffffffffffffffffff16146105f4576040517f08c379a00000000000000000000000000000000000000000000000000000000081526004016105eb90611d92565b60405180910390fd5b60008111801561060657506008548111155b610645576040517f08c379a000000000000000000000000000000000000000000000000000000000815260040161063c906118c5565b60405180910390fd5b600560008281526020019081526020016000206000808201600090556001820160006106719190611270565b6002820160006106819190611270565b6003820160006106919190611270565b6004820160009055505050565b60085481565b60056020528060005260406000206000915090508060000154908060010180546106cd9061198b565b80601f01602080910402602001604051908101604052809291908181526020018280546106f99061198b565b80156107465780601f1061071b57610100808354040283529160200191610746565b820191906000526020600020905b81548152906001019060200180831161072957829003601f168201915b50505050509080600201805461075b9061198b565b80601f01602080910402602001604051908101604052809291908181526020018280546107879061198b565b80156107d45780601f106107a9576101008083540402835291602001916107d4565b820191906000526020600020905b8154815290600101906020018083116107b757829003601f168201915b5050505050908060030180546107e99061198b565b80601f01602080910402602001604051908101604052809291908181526020018280546108159061198b565b80156108625780601f1061083757610100808354040283529160200191610862565b820191906000526020600020905b81548152906001019060200180831161084557829003601f168201915b5050505050908060040154905085565b6003818154811061088257600080fd5b90600052602060002001600091509050805461089d9061198b565b80601f01602080910402602001604051908101604052809291908181526020018280546108c99061198b565b80156109165780601f106108eb57610100808354040283529160200191610916565b820191906000526020600020905b8154815290600101906020018083116108f957829003601f168201915b505050505081565b6004818154811061092e57600080fd5b9060005260206000200160009150905080546109499061198b565b80601f01602080910402602001604051908101604052809291908181526020018280546109759061198b565b80156109c25780601f10610997576101008083540402835291602001916109c2565b820191906000526020600020905b8154815290600101906020018083116109a557829003601f168201915b505050505081565b600b6020528060005260406000206000915054906101000a900460ff1681565b60095481565b600781805160208101820180518482526020830160208501208183528095505050505050600091509050806000018054610a299061198b565b80601f0160208091040260200160405190810160405280929190818152602001828054610a559061198b565b8015610aa25780601f10610a7757610100808354040283529160200191610aa2565b820191906000526020600020905b815481529060010190602001808311610a8557829003601f168201915b5050505050908060010154905082565b60008054906101000a900473ffffffffffffffffffffffffffffffffffffffff1673ffffffffffffffffffffffffffffffffffffffff163373ffffffffffffffffffffffffffffffffffffffff1614610b40576040517f08c379a0000000000000000000000000000000000000000000000000000000008152600401610b3790611d92565b60405180910390fd5b60086000815480929190610b5390611914565b91905055506040518060a0016040528060085481526020018481526020018381526020018281526020016000815250600560006008548152602001908152602001600020600082015181600001556020820151816001019081610bb69190611db2565b506040820151816002019081610bcc9190611db2565b506060820151816003019081610be29190611db2565b5060808201518160040155905050600682604051610c009190611eb5565b9081526020016040518091039020600001604051602001610c219190611a5f565b6040516020818303038152906040528051906020012082604051602001610c489190611eb5565b604051602081830303815290604052805190602001200315610d345760096000815480929190610c7790611914565b919050555060405180606001604052808381526020016040518060200160405280600081525081526020016000815250600683604051610cb79190611eb5565b90815260200160405180910390206000820151816000019081610cda9190611db2565b506020820151816001019081610cf09190611db2565b5060408201518160020155905050600382908060018154018082558091505060019003906000526020600020016000909190919091509081610d329190611db2565b505b600781604051610d449190611eb5565b9081526020016040518091039020600001604051602001610d659190611a5f565b6040516020818303038152906040528051906020012081604051602001610d8c9190611eb5565b604051602081830303815290604052805190602001200315610e4d57600a6000815480929190610dbb90611914565b919050555060405180604001604052808281526020016000815250600782604051610de69190611eb5565b90815260200160405180910390206000820151816000019081610e099190611db2565b5060208201518160010155905050600481908060018154018082558091505060019003906000526020600020016000909190919091509081610e4b9190611db2565b505b505050565b60018054610e5f9061198b565b80601f0160208091040260200160405190810160405280929190818152602001828054610e8b9061198b565b8015610ed85780601f10610ead57610100808354040283529160200191610ed8565b820191906000526020600020905b815481529060010190602001808311610ebb57829003601f168201915b505050505081565b600a5481565b606060006001600254818054610efb9061198b565b80601f0160208091040260200160405190810160405280929190818152602001828054610f279061198b565b8015610f745780601f10610f4957610100808354040283529160200191610f74565b820191906000526020600020905b815481529060010190602001808311610f5757829003601f168201915b50505050509150915091509091565b600681805160208101820180518482526020830160208501208183528095505050505050600091509050806000018054610fbc9061198b565b80601f0160208091040260200160405190810160405280929190818152602001828054610fe89061198b565b80156110355780601f1061100a57610100808354040283529160200191611035565b820191906000526020600020905b81548152906001019060200180831161101857829003601f168201915b50505050509080600101805461104a9061198b565b80601f01602080910402602001604051908101604052809291908181526020018280546110769061198b565b80156110c35780601f10611098576101008083540402835291602001916110c3565b820191906000526020600020905b8154815290600101906020018083116110a657829003601f168201915b5050505050908060020154905083565b60025481565b60005b60095481101561116d5760076006600383815481106110fe576110fd611ecc565b5b906000526020600020016040516111159190611a5f565b90815260200160405180910390206001016040516111339190611a5f565b9081526020016040518091039020600101600081548092919061115590611914565b9190505550808061116590611914565b9150506110dc565b5060005b600a548110156112495760025460076004838154811061119457611193611ecc565b5b906000526020600020016040516111ab9190611a5f565b9081526020016040518091039020600101541115611236576007600482815481106111d9576111d8611ecc565b5b906000526020600020016040516111f09190611a5f565b9081526020016040518091039020600101546002819055506004818154811061121c5761121b611ecc565b5b90600052602060002001600190816112349190611c38565b505b808061124190611914565b915050611171565b50565b60008054906101000a900473ffffffffffffffffffffffffffffffffffffffff1681565b50805461127c9061198b565b6000825580601f1061128e57506112ad565b601f0160209004906000526020600020908101906112ac91906112b0565b5b50565b5b808211156112c95760008160009055506001016112b1565b5090565b6000604051905090565b600080fd5b600080fd5b6000819050919050565b6112f4816112e1565b81146112ff57600080fd5b50565b600081359050611311816112eb565b92915050565b60006020828403121561132d5761132c6112d7565b5b600061133b84828501611302565b91505092915050565b61134d816112e1565b82525050565b60006020820190506113686000830184611344565b92915050565b600081519050919050565b600082825260208201905092915050565b60005b838110156113a857808201518184015260208101905061138d565b60008484015250505050565b6000601f19601f8301169050919050565b60006113d08261136e565b6113da8185611379565b93506113ea81856020860161138a565b6113f3816113b4565b840191505092915050565b600060a0820190506114136000830188611344565b818103602083015261142581876113c5565b9050818103604083015261143981866113c5565b9050818103606083015261144d81856113c5565b905061145c6080830184611344565b9695505050505050565b6000602082019050818103600083015261148081846113c5565b905092915050565b600073ffffffffffffffffffffffffffffffffffffffff82169050919050565b60006114b382611488565b9050919050565b6114c3816114a8565b81146114ce57600080fd5b50565b6000813590506114e0816114ba565b92915050565b6000602082840312156114fc576114fb6112d7565b5b600061150a848285016114d1565b91505092915050565b60008115159050919050565b61152881611513565b82525050565b6000602082019050611543600083018461151f565b92915050565b600080fd5b600080fd5b7f4e487b7100000000000000000000000000000000000000000000000000000000600052604160045260246000fd5b61158b826113b4565b810181811067ffffffffffffffff821117156115aa576115a9611553565b5b80604052505050565b60006115bd6112cd565b90506115c98282611582565b919050565b600067ffffffffffffffff8211156115e9576115e8611553565b5b6115f2826113b4565b9050602081019050919050565b82818337600083830152505050565b600061162161161c846115ce565b6115b3565b90508281526020810184848401111561163d5761163c61154e565b5b6116488482856115ff565b509392505050565b600082601f83011261166557611664611549565b5b813561167584826020860161160e565b91505092915050565b600060208284031215611694576116936112d7565b5b600082013567ffffffffffffffff8111156116b2576116b16112dc565b5b6116be84828501611650565b91505092915050565b600060408201905081810360008301526116e181856113c5565b90506116f06020830184611344565b9392505050565b6000806000606084860312156117105761170f6112d7565b5b600084013567ffffffffffffffff81111561172e5761172d6112dc565b5b61173a86828701611650565b935050602084013567ffffffffffffffff81111561175b5761175a6112dc565b5b61176786828701611650565b925050604084013567ffffffffffffffff811115611788576117876112dc565b5b61179486828701611650565b9150509250925092565b600060608201905081810360008301526117b881866113c5565b905081810360208301526117cc81856113c5565b90506117db6040830184611344565b949350505050565b6117ec816114a8565b82525050565b600060208201905061180760008301846117e3565b92915050565b7f596f75206861766520616c726561647920766f74656400000000000000000000600082015250565b6000611843601683611379565b915061184e8261180d565b602082019050919050565b6000602082019050818103600083015261187281611836565b9050919050565b7f496e76616c69642063616e646964617465204944000000000000000000000000600082015250565b60006118af601483611379565b91506118ba82611879565b602082019050919050565b600060208201905081810360008301526118de816118a2565b9050919050565b7f4e487b7100000000000000000000000000000000000000000000000000000000600052601160045260246000fd5b600061191f826112e1565b91507fffffffffffffffffffffffffffffffffffffffffffffffffffffffffffffffff8203611951576119506118e5565b5b600182019050919050565b7f4e487b7100000000000000000000000000000000000000000000000000000000600052602260045260246000fd5b600060028204905060018216806119a357607f821691505b6020821081036119b6576119b561195c565b5b50919050565b600081905092915050565b60008190508160005260206000209050919050565b600081546119e98161198b565b6119f381866119bc565b94506001821660008114611a0e5760018114611a2357611a56565b60ff1983168652811515820286019350611a56565b611a2c856119c7565b60005b83811015611a4e57815481890152600182019150602081019050611a2f565b838801955050505b50505092915050565b6000611a6b82846119dc565b915081905092915050565b600081549050611a858161198b565b9050919050565b60008190508160005260206000209050919050565b60006020601f8301049050919050565b600082821b905092915050565b600060088302611aee7fffffffffffffffffffffffffffffffffffffffffffffffffffffffffffffffff82611ab1565b611af88683611ab1565b95508019841693508086168417925050509392505050565b6000819050919050565b6000611b35611b30611b2b846112e1565b611b10565b6112e1565b9050919050565b6000819050919050565b611b4f83611b1a565b611b63611b5b82611b3c565b848454611abe565b825550505050565b600090565b611b78611b6b565b611b83818484611b46565b505050565b5b81811015611ba757611b9c600082611b70565b600181019050611b89565b5050565b601f821115611bec57611bbd816119c7565b611bc684611aa1565b81016020851015611bd5578190505b611be9611be185611aa1565b830182611b88565b50505b505050565b600082821c905092915050565b6000611c0f60001984600802611bf1565b1980831691505092915050565b6000611c288383611bfe565b9150826002028217905092915050565b818103611c46575050611d1e565b611c4f82611a76565b67ffffffffffffffff811115611c6857611c67611553565b5b611c72825461198b565b611c7d828285611bab565b6000601f831160018114611cac5760008415611c9a578287015490505b611ca48582611c1c565b865550611d17565b601f198416611cba87611a8c565b9650611cc5866119c7565b60005b82811015611ced57848901548255600182019150600185019450602081019050611cc8565b86831015611d0a5784890154611d06601f891682611bfe565b8355505b6001600288020188555050505b5050505050505b565b7f4f6e6c792061646d696e2063616e20706572666f726d2074686973206163746960008201527f6f6e000000000000000000000000000000000000000000000000000000000000602082015250565b6000611d7c602283611379565b9150611d8782611d20565b604082019050919050565b60006020820190508181036000830152611dab81611d6f565b9050919050565b611dbb8261136e565b67ffffffffffffffff811115611dd457611dd3611553565b5b611dde825461198b565b611de9828285611bab565b600060209050601f831160018114611e1c5760008415611e0a578287015190505b611e148582611c1c565b865550611e7c565b601f198416611e2a866119c7565b60005b82811015611e5257848901518255600182019150602085019450602081019050611e2d565b86831015611e6f5784890151611e6b601f891682611bfe565b8355505b6001600288020188555050505b505050505050565b6000611e8f8261136e565b611e9981856119bc565b9350611ea981856020860161138a565b80840191505092915050565b6000611ec18284611e84565b915081905092915050565b7f4e487b7100000000000000000000000000000000000000000000000000000000600052603260045260246000fdfea2646970667358221220912bb2f635605c1e0277ca5ecbbbe5fdcef49b4602b84797cc095edf31d1fddf64736f6c63430008130033",
  "immutableReferences": {},
  "source": "// SPDX-License-Identifier: MIT\npragma solidity >=0.5.0 <0.9.0;\n\ncontract VotingSystem{\n    address public admin;\n    string public winningParty;\n    uint public Seats = 0;\n    struct Candidate {\n        uint id;\n        string name;\n        string area;\n        string party;\n        uint voteCount;\n    }\n\n    string[] public Ar;\n    struct Area {\n        string name;\n        string leadingParty;\n        uint totalVote;\n    }\n\n    string[] public Pr;\n    struct Party{\n        string name;\n        uint totalSeatsWon;\n    }\n\n    mapping(uint => Candidate) public candidates;\n    mapping (string => Area) public areas;\n    mapping (string => Party) public parties;\n\n    uint public candidatesCount;\n    uint public areasCount;\n    uint public partiesCount;\n\n    mapping(address => bool) public voters;\n\n    modifier onlyAdmin() {\n        require(msg.sender == admin, \"Only admin can perform this action\");\n        _;\n    }\n\n    constructor() {\n        admin = msg.sender;\n    }\n\n    function addCandidate(string memory _name, string memory _area, string memory _party) public onlyAdmin {\n        candidatesCount++;\n        candidates[candidatesCount] = Candidate(candidatesCount, _name, _area, _party, 0);\n        if(keccak256(abi.encodePacked(_area)) == keccak256(abi.encodePacked(areas[_area].name))){\n            //\n        }\n        else{\n            areasCount++;\n            areas[_area]=Area(_area,\"\",0);\n            Ar.push(_area);\n        }\n        \n        if(keccak256(abi.encodePacked(_party)) == keccak256(abi.encodePacked(parties[_party].name))){\n            //\n        }\n        else{\n            partiesCount++;\n            parties[_party]=Party(_party,0);\n            Pr.push(_party);\n        }\n        \n        \n    }\n\n    // remove candidates\n    function removeCandidate(uint _candidateId) public onlyAdmin {\n        require(_candidateId > 0 && _candidateId <= candidatesCount, \"Invalid candidate ID\");\n        delete candidates[_candidateId];\n        // You might want to implement logic here to reorganize candidate IDs if needed\n     }\n\n    function vote(uint _candidateId) public {\n        require(!voters[msg.sender], \"You have already voted\");\n        require(_candidateId > 0 && _candidateId <= candidatesCount, \"Invalid candidate ID\");\n        Candidate storage candidate = candidates[_candidateId];\n        candidate.voteCount++;\n        voters[msg.sender] = true;\n    \n        if(areas[candidate.area].totalVote<candidate.voteCount){\n            areas[candidate.area].totalVote=candidate.voteCount;\n            areas[candidate.area].leadingParty=candidate.party;\n        }\n        \n    }\n    function calculateWinner() public{\n        for(uint i=0;i<areasCount;i++){\n            parties[areas[Ar[i]].leadingParty].totalSeatsWon++;\n        }\n        for(uint i=0;i<partiesCount;i++){\n            if(parties[Pr[i]].totalSeatsWon>Seats){\n                Seats=parties[Pr[i]].totalSeatsWon;\n                winningParty=Pr[i];\n            }\n        }\n\n    }\n\n    function getOverallWinningParty() public view returns (string memory, uint) {\n        return(winningParty,Seats);\n    }\n}\n",
  "sourcePath": "X:\\online_voting\\online_voting\\contract\\contracts\\VotingSystem.sol",
  "compiler": {
    "name": "solc",
    "version": "0.8.19+commit.7dd6d404.Emscripten.clang"
  },
  "schemaVersion": "3.4.16",
  "updatedAt": "2024-03-20T16:33:32.036Z",
  "networkType": "ethereum",
  "devdoc": {
    "kind": "dev",
    "methods": {},
    "version": 1
  },
  "userdoc": {
    "kind": "user",
    "methods": {},
    "version": 1
  }
}