{
  "contractName": "VotingSystem",
  "abi": [
    {
      "inputs": [],
      "stateMutability": "nonpayable",
      "type": "constructor"
    },
    {
      "inputs": [
        {
          "internalType": "uint256",
          "name": "",
          "type": "uint256"
        }
      ],
      "name": "Ar",
      "outputs": [
        {
          "internalType": "string",
          "name": "",
          "type": "string"
        }
      ],
      "stateMutability": "view",
      "type": "function",
      "constant": true
    },
    {
      "inputs": [
        {
          "internalType": "uint256",
          "name": "",
          "type": "uint256"
        }
      ],
      "name": "Pr",
      "outputs": [
        {
          "internalType": "string",
          "name": "",
          "type": "string"
        }
      ],
      "stateMutability": "view",
      "type": "function",
      "constant": true
    },
    {
      "inputs": [],
      "name": "Seats",
      "outputs": [
        {
          "internalType": "uint256",
          "name": "",
          "type": "uint256"
        }
      ],
      "stateMutability": "view",
      "type": "function",
      "constant": true
    },
    {
      "inputs": [],
      "name": "admin",
      "outputs": [
        {
          "internalType": "address",
          "name": "",
          "type": "address"
        }
      ],
      "stateMutability": "view",
      "type": "function",
      "constant": true
    },
    {
      "inputs": [
        {
          "internalType": "string",
          "name": "",
          "type": "string"
        }
      ],
      "name": "areas",
      "outputs": [
        {
          "internalType": "string",
          "name": "name",
          "type": "string"
        },
        {
          "internalType": "string",
          "name": "leadingParty",
          "type": "string"
        },
        {
          "internalType": "uint256",
          "name": "totalVote",
          "type": "uint256"
        }
      ],
      "stateMutability": "view",
      "type": "function",
      "constant": true
    },
    {
      "inputs": [],
      "name": "areasCount",
      "outputs": [
        {
          "internalType": "uint256",
          "name": "",
          "type": "uint256"
        }
      ],
      "stateMutability": "view",
      "type": "function",
      "constant": true
    },
    {
      "inputs": [
        {
          "internalType": "uint256",
          "name": "",
          "type": "uint256"
        }
      ],
      "name": "candidates",
      "outputs": [
        {
          "internalType": "uint256",
          "name": "id",
          "type": "uint256"
        },
        {
          "internalType": "string",
          "name": "name",
          "type": "string"
        },
        {
          "internalType": "string",
          "name": "area",
          "type": "string"
        },
        {
          "internalType": "string",
          "name": "party",
          "type": "string"
        },
        {
          "internalType": "uint256",
          "name": "voteCount",
          "type": "uint256"
        }
      ],
      "stateMutability": "view",
      "type": "function",
      "constant": true
    },
    {
      "inputs": [],
      "name": "candidatesCount",
      "outputs": [
        {
          "internalType": "uint256",
          "name": "",
          "type": "uint256"
        }
      ],
      "stateMutability": "view",
      "type": "function",
      "constant": true
    },
    {
      "inputs": [
        {
          "internalType": "string",
          "name": "",
          "type": "string"
        }
      ],
      "name": "parties",
      "outputs": [
        {
          "internalType": "string",
          "name": "name",
          "type": "string"
        },
        {
          "internalType": "uint256",
          "name": "totalSeatsWon",
          "type": "uint256"
        },
        {
          "internalType": "uint256",
          "name": "totalvotes",
          "type": "uint256"
        }
      ],
      "stateMutability": "view",
      "type": "function",
      "constant": true
    },
    {
      "inputs": [],
      "name": "partiesCount",
      "outputs": [
        {
          "internalType": "uint256",
          "name": "",
          "type": "uint256"
        }
      ],
      "stateMutability": "view",
      "type": "function",
      "constant": true
    },
    {
      "inputs": [
        {
          "internalType": "string",
          "name": "",
          "type": "string"
        }
      ],
      "name": "totalAreaVotes",
      "outputs": [
        {
          "internalType": "uint256",
          "name": "",
          "type": "uint256"
        }
      ],
      "stateMutability": "view",
      "type": "function",
      "constant": true
    },
    {
      "inputs": [
        {
          "internalType": "string",
          "name": "",
          "type": "string"
        }
      ],
      "name": "totalCandidateVotes",
      "outputs": [
        {
          "internalType": "uint256",
          "name": "",
          "type": "uint256"
        }
      ],
      "stateMutability": "view",
      "type": "function",
      "constant": true
    },
    {
      "inputs": [
        {
          "internalType": "string",
          "name": "",
          "type": "string"
        }
      ],
      "name": "totalPartyVotes",
      "outputs": [
        {
          "internalType": "uint256",
          "name": "",
          "type": "uint256"
        }
      ],
      "stateMutability": "view",
      "type": "function",
      "constant": true
    },
    {
      "inputs": [],
      "name": "tv",
      "outputs": [
        {
          "internalType": "uint256",
          "name": "",
          "type": "uint256"
        }
      ],
      "stateMutability": "view",
      "type": "function",
      "constant": true
    },
    {
      "inputs": [
        {
          "internalType": "address",
          "name": "",
          "type": "address"
        }
      ],
      "name": "voters",
      "outputs": [
        {
          "internalType": "bool",
          "name": "",
          "type": "bool"
        }
      ],
      "stateMutability": "view",
      "type": "function",
      "constant": true
    },
    {
      "inputs": [],
      "name": "winningParty",
      "outputs": [
        {
          "internalType": "string",
          "name": "",
          "type": "string"
        }
      ],
      "stateMutability": "view",
      "type": "function",
      "constant": true
    },
    {
      "inputs": [
        {
          "internalType": "string",
          "name": "_name",
          "type": "string"
        },
        {
          "internalType": "string",
          "name": "_area",
          "type": "string"
        },
        {
          "internalType": "string",
          "name": "_party",
          "type": "string"
        }
      ],
      "name": "addCandidate",
      "outputs": [],
      "stateMutability": "nonpayable",
      "type": "function"
    },
    {
      "inputs": [
        {
          "internalType": "uint256",
          "name": "_candidateId",
          "type": "uint256"
        }
      ],
      "name": "removeCandidate",
      "outputs": [],
      "stateMutability": "nonpayable",
      "type": "function"
    },
    {
      "inputs": [
        {
          "internalType": "uint256",
          "name": "_candidateId",
          "type": "uint256"
        }
      ],
      "name": "vote",
      "outputs": [],
      "stateMutability": "nonpayable",
      "type": "function"
    },
    {
      "inputs": [],
      "name": "calculateTotalVotes",
      "outputs": [],
      "stateMutability": "nonpayable",
      "type": "function"
    },
    {
      "inputs": [
        {
          "internalType": "string",
          "name": "a",
          "type": "string"
        }
      ],
      "name": "returncandidate",
      "outputs": [
        {
          "internalType": "uint256",
          "name": "",
          "type": "uint256"
        }
      ],
      "stateMutability": "view",
      "type": "function",
      "constant": true
    },
    {
      "inputs": [],
      "name": "calculateWinner",
      "outputs": [],
      "stateMutability": "nonpayable",
      "type": "function"
    },
    {
      "inputs": [],
      "name": "getOverallWinningParty",
      "outputs": [
        {
          "internalType": "string",
          "name": "",
          "type": "string"
        },
        {
          "internalType": "uint256",
          "name": "",
          "type": "uint256"
        },
        {
          "internalType": "uint256",
          "name": "",
          "type": "uint256"
        }
      ],
      "stateMutability": "view",
      "type": "function",
      "constant": true
    }
  ],
  "bytecode": "0x60806040526000600255600060035534801561001a57600080fd5b50336000806101000a81548173ffffffffffffffffffffffffffffffffffffffff021916908373ffffffffffffffffffffffffffffffffffffffff16021790555061235c8061006a6000396000f3fe608060405234801561001057600080fd5b506004361061014d5760003560e01c8063a9683ba6116100c3578063c56a35401161007c578063c56a3540146103de578063ca9da69c146103fc578063d4a7de3e1461041c578063de0a7af91461044e578063ea35e8051461046c578063f851a440146104765761014d565b8063a9683ba614610306578063aa09ac3c14610324578063ad71f8dc14610356578063adb61ff014610372578063ae315fe4146103a2578063bd8a7322146103c05761014d565b80633477ee2e116101155780633477ee2e146102085780636fcb565f1461023c57806385aad0b91461024657806387fa81e21461027657806391e48abe146102a6578063a3ec138d146102d65761014d565b80630121b93f1461015257806309e9d7e21461016e5780632481015f1461018a57806327c84ff0146101ba5780632d35a8a2146101ea575b600080fd5b61016c60048036038101906101679190611734565b610494565b005b61018860048036038101906101839190611734565b6106cc565b005b6101a4600480360381019061019f91906118a7565b610804565b6040516101b191906118ff565b60405180910390f35b6101d460048036038101906101cf91906118a7565b61082c565b6040516101e191906118ff565b60405180910390f35b6101f261085a565b6040516101ff91906118ff565b60405180910390f35b610222600480360381019061021d9190611734565b610860565b604051610233959493929190611999565b60405180910390f35b610244610a2e565b005b610260600480360381019061025b9190611734565b610be6565b60405161026d9190611a01565b60405180910390f35b610290600480360381019061028b91906118a7565b610c92565b60405161029d91906118ff565b60405180910390f35b6102c060048036038101906102bb9190611734565b610cc0565b6040516102cd9190611a01565b60405180910390f35b6102f060048036038101906102eb9190611a81565b610d6c565b6040516102fd9190611ac9565b60405180910390f35b61030e610d8c565b60405161031b91906118ff565b60405180910390f35b61033e600480360381019061033991906118a7565b610d92565b60405161034d93929190611ae4565b60405180910390f35b610370600480360381019061036b9190611b22565b610e5a565b005b61038c600480360381019061038791906118a7565b61120b565b60405161039991906118ff565b60405180910390f35b6103aa611239565b6040516103b79190611a01565b60405180910390f35b6103c86112c7565b6040516103d591906118ff565b60405180910390f35b6103e66112cd565b6040516103f391906118ff565b60405180910390f35b6104046112d3565b60405161041393929190611ae4565b60405180910390f35b610436600480360381019061043191906118a7565b611377565b60405161044593929190611bc9565b60405180910390f35b6104566114c7565b60405161046391906118ff565b60405180910390f35b6104746114cd565b005b61047e611669565b60405161048b9190611c1d565b60405180910390f35b600c60003373ffffffffffffffffffffffffffffffffffffffff1673ffffffffffffffffffffffffffffffffffffffff16815260200190815260200160002060009054906101000a900460ff1615610521576040517f08c379a000000000000000000000000000000000000000000000000000000000815260040161051890611c84565b60405180910390fd5b60008111801561053357506009548111155b610572576040517f08c379a000000000000000000000000000000000000000000000000000000000815260040161056990611cf0565b60405180910390fd5b600060066000838152602001908152602001600020905080600401600081548092919061059e90611d3f565b91905055506001600c60003373ffffffffffffffffffffffffffffffffffffffff1673ffffffffffffffffffffffffffffffffffffffff16815260200190815260200160002060006101000a81548160ff02191690831515021790555060088160030160405161060e9190611e8a565b9081526020016040518091039020600201600081548092919061063090611d3f565b9190505550806004015460078260020160405161064d9190611e8a565b90815260200160405180910390206002015410156106c857806004015460078260020160405161067d9190611e8a565b908152602001604051809103902060020181905550806003016007826002016040516106a99190611e8a565b908152602001604051809103902060010190816106c69190612063565b505b5050565b60008054906101000a900473ffffffffffffffffffffffffffffffffffffffff1673ffffffffffffffffffffffffffffffffffffffff163373ffffffffffffffffffffffffffffffffffffffff161461075a576040517f08c379a0000000000000000000000000000000000000000000000000000000008152600401610751906121bd565b60405180910390fd5b60008111801561076c57506009548111155b6107ab576040517f08c379a00000000000000000000000000000000000000000000000000000000081526004016107a290611cf0565b60405180910390fd5b600660008281526020019081526020016000206000808201600090556001820160006107d7919061168d565b6002820160006107e7919061168d565b6003820160006107f7919061168d565b6004820160009055505050565b6000600d82604051610816919061220e565b9081526020016040518091039020549050919050565b600e818051602081018201805184825260208301602085012081835280955050505050506000915090505481565b60095481565b600660205280600052604060002060009150905080600001549080600101805461088990611db6565b80601f01602080910402602001604051908101604052809291908181526020018280546108b590611db6565b80156109025780601f106108d757610100808354040283529160200191610902565b820191906000526020600020905b8154815290600101906020018083116108e557829003601f168201915b50505050509080600201805461091790611db6565b80601f016020809104026020016040519081016040528092919081815260200182805461094390611db6565b80156109905780601f1061096557610100808354040283529160200191610990565b820191906000526020600020905b81548152906001019060200180831161097357829003601f168201915b5050505050908060030180546109a590611db6565b80601f01602080910402602001604051908101604052809291908181526020018280546109d190611db6565b8015610a1e5780601f106109f357610100808354040283529160200191610a1e565b820191906000526020600020905b815481529060010190602001808311610a0157829003601f168201915b5050505050908060040154905085565b6000600190505b6009548111610a9f576006600082815260200190815260200160002060040154600d60066000848152602001908152602001600020600101604051610a7a9190611e8a565b9081526020016040518091039020819055508080610a9790611d3f565b915050610a35565b5060005b600580549050811015610b4157600860058281548110610ac657610ac5612225565b5b90600052602060002001604051610add9190611e8a565b908152602001604051809103902060010154600e60058381548110610b0557610b04612225565b5b90600052602060002001604051610b1c9190611e8a565b9081526020016040518091039020819055508080610b3990611d3f565b915050610aa3565b5060005b600480549050811015610be357600760048281548110610b6857610b67612225565b5b90600052602060002001604051610b7f9190611e8a565b908152602001604051809103902060020154600f60048381548110610ba757610ba6612225565b5b90600052602060002001604051610bbe9190611e8a565b9081526020016040518091039020819055508080610bdb90611d3f565b915050610b45565b50565b60048181548110610bf657600080fd5b906000526020600020016000915090508054610c1190611db6565b80601f0160208091040260200160405190810160405280929190818152602001828054610c3d90611db6565b8015610c8a5780601f10610c5f57610100808354040283529160200191610c8a565b820191906000526020600020905b815481529060010190602001808311610c6d57829003601f168201915b505050505081565b600d818051602081018201805184825260208301602085012081835280955050505050506000915090505481565b60058181548110610cd057600080fd5b906000526020600020016000915090508054610ceb90611db6565b80601f0160208091040260200160405190810160405280929190818152602001828054610d1790611db6565b8015610d645780601f10610d3957610100808354040283529160200191610d64565b820191906000526020600020905b815481529060010190602001808311610d4757829003601f168201915b505050505081565b600c6020528060005260406000206000915054906101000a900460ff1681565b600a5481565b600881805160208101820180518482526020830160208501208183528095505050505050600091509050806000018054610dcb90611db6565b80601f0160208091040260200160405190810160405280929190818152602001828054610df790611db6565b8015610e445780601f10610e1957610100808354040283529160200191610e44565b820191906000526020600020905b815481529060010190602001808311610e2757829003601f168201915b5050505050908060010154908060020154905083565b60008054906101000a900473ffffffffffffffffffffffffffffffffffffffff1673ffffffffffffffffffffffffffffffffffffffff163373ffffffffffffffffffffffffffffffffffffffff1614610ee8576040517f08c379a0000000000000000000000000000000000000000000000000000000008152600401610edf906121bd565b60405180910390fd5b60096000815480929190610efb90611d3f565b91905055506040518060a0016040528060095481526020018481526020018381526020018281526020016000815250600660006009548152602001908152602001600020600082015181600001556020820151816001019081610f5e9190612254565b506040820151816002019081610f749190612254565b506060820151816003019081610f8a9190612254565b5060808201518160040155905050600782604051610fa8919061220e565b9081526020016040518091039020600001604051602001610fc99190611e8a565b6040516020818303038152906040528051906020012082604051602001610ff0919061220e565b6040516020818303038152906040528051906020012003156110dc57600a600081548092919061101f90611d3f565b91905055506040518060600160405280838152602001604051806020016040528060008152508152602001600081525060078360405161105f919061220e565b908152602001604051809103902060008201518160000190816110829190612254565b5060208201518160010190816110989190612254565b50604082015181600201559050506004829080600181540180825580915050600190039060005260206000200160009091909190915090816110da9190612254565b505b6008816040516110ec919061220e565b908152602001604051809103902060000160405160200161110d9190611e8a565b6040516020818303038152906040528051906020012081604051602001611134919061220e565b60405160208183030381529060405280519060200120031561120657600b600081548092919061116390611d3f565b91905055506040518060600160405280828152602001600081526020016000815250600882604051611195919061220e565b908152602001604051809103902060008201518160000190816111b89190612254565b5060208201518160010155604082015181600201559050506005819080600181540180825580915050600190039060005260206000200160009091909190915090816112049190612254565b505b505050565b600f818051602081018201805184825260208301602085012081835280955050505050506000915090505481565b6001805461124690611db6565b80601f016020809104026020016040519081016040528092919081815260200182805461127290611db6565b80156112bf5780601f10611294576101008083540402835291602001916112bf565b820191906000526020600020905b8154815290600101906020018083116112a257829003601f168201915b505050505081565b60035481565b600b5481565b606060008060016002546003548280546112ec90611db6565b80601f016020809104026020016040519081016040528092919081815260200182805461131890611db6565b80156113655780601f1061133a57610100808354040283529160200191611365565b820191906000526020600020905b81548152906001019060200180831161134857829003601f168201915b50505050509250925092509250909192565b6007818051602081018201805184825260208301602085012081835280955050505050506000915090508060000180546113b090611db6565b80601f01602080910402602001604051908101604052809291908181526020018280546113dc90611db6565b80156114295780601f106113fe57610100808354040283529160200191611429565b820191906000526020600020905b81548152906001019060200180831161140c57829003601f168201915b50505050509080600101805461143e90611db6565b80601f016020809104026020016040519081016040528092919081815260200182805461146a90611db6565b80156114b75780601f1061148c576101008083540402835291602001916114b7565b820191906000526020600020905b81548152906001019060200180831161149a57829003601f168201915b5050505050908060020154905083565b60025481565b60005b600a548110156115615760086007600483815481106114f2576114f1612225565b5b906000526020600020016040516115099190611e8a565b90815260200160405180910390206001016040516115279190611e8a565b9081526020016040518091039020600101600081548092919061154990611d3f565b9190505550808061155990611d3f565b9150506114d0565b5060005b600b5481101561163d5760025460086005838154811061158857611587612225565b5b9060005260206000200160405161159f9190611e8a565b908152602001604051809103902060010154111561162a576008600582815481106115cd576115cc612225565b5b906000526020600020016040516115e49190611e8a565b908152602001604051809103902060010154600281905550600581815481106116105761160f612225565b5b90600052602060002001600190816116289190612063565b505b808061163590611d3f565b915050611565565b506008600160405161164f9190611e8a565b908152602001604051809103902060020154600381905550565b60008054906101000a900473ffffffffffffffffffffffffffffffffffffffff1681565b50805461169990611db6565b6000825580601f106116ab57506116ca565b601f0160209004906000526020600020908101906116c991906116cd565b5b50565b5b808211156116e65760008160009055506001016116ce565b5090565b6000604051905090565b600080fd5b600080fd5b6000819050919050565b611711816116fe565b811461171c57600080fd5b50565b60008135905061172e81611708565b92915050565b60006020828403121561174a576117496116f4565b5b60006117588482850161171f565b91505092915050565b600080fd5b600080fd5b6000601f19601f8301169050919050565b7f4e487b7100000000000000000000000000000000000000000000000000000000600052604160045260246000fd5b6117b48261176b565b810181811067ffffffffffffffff821117156117d3576117d261177c565b5b80604052505050565b60006117e66116ea565b90506117f282826117ab565b919050565b600067ffffffffffffffff8211156118125761181161177c565b5b61181b8261176b565b9050602081019050919050565b82818337600083830152505050565b600061184a611845846117f7565b6117dc565b90508281526020810184848401111561186657611865611766565b5b611871848285611828565b509392505050565b600082601f83011261188e5761188d611761565b5b813561189e848260208601611837565b91505092915050565b6000602082840312156118bd576118bc6116f4565b5b600082013567ffffffffffffffff8111156118db576118da6116f9565b5b6118e784828501611879565b91505092915050565b6118f9816116fe565b82525050565b600060208201905061191460008301846118f0565b92915050565b600081519050919050565b600082825260208201905092915050565b60005b83811015611954578082015181840152602081019050611939565b60008484015250505050565b600061196b8261191a565b6119758185611925565b9350611985818560208601611936565b61198e8161176b565b840191505092915050565b600060a0820190506119ae60008301886118f0565b81810360208301526119c08187611960565b905081810360408301526119d48186611960565b905081810360608301526119e88185611960565b90506119f760808301846118f0565b9695505050505050565b60006020820190508181036000830152611a1b8184611960565b905092915050565b600073ffffffffffffffffffffffffffffffffffffffff82169050919050565b6000611a4e82611a23565b9050919050565b611a5e81611a43565b8114611a6957600080fd5b50565b600081359050611a7b81611a55565b92915050565b600060208284031215611a9757611a966116f4565b5b6000611aa584828501611a6c565b91505092915050565b60008115159050919050565b611ac381611aae565b82525050565b6000602082019050611ade6000830184611aba565b92915050565b60006060820190508181036000830152611afe8186611960565b9050611b0d60208301856118f0565b611b1a60408301846118f0565b949350505050565b600080600060608486031215611b3b57611b3a6116f4565b5b600084013567ffffffffffffffff811115611b5957611b586116f9565b5b611b6586828701611879565b935050602084013567ffffffffffffffff811115611b8657611b856116f9565b5b611b9286828701611879565b925050604084013567ffffffffffffffff811115611bb357611bb26116f9565b5b611bbf86828701611879565b9150509250925092565b60006060820190508181036000830152611be38186611960565b90508181036020830152611bf78185611960565b9050611c0660408301846118f0565b949350505050565b611c1781611a43565b82525050565b6000602082019050611c326000830184611c0e565b92915050565b7f596f75206861766520616c726561647920766f74656400000000000000000000600082015250565b6000611c6e601683611925565b9150611c7982611c38565b602082019050919050565b60006020820190508181036000830152611c9d81611c61565b9050919050565b7f496e76616c69642063616e646964617465204944000000000000000000000000600082015250565b6000611cda601483611925565b9150611ce582611ca4565b602082019050919050565b60006020820190508181036000830152611d0981611ccd565b9050919050565b7f4e487b7100000000000000000000000000000000000000000000000000000000600052601160045260246000fd5b6000611d4a826116fe565b91507fffffffffffffffffffffffffffffffffffffffffffffffffffffffffffffffff8203611d7c57611d7b611d10565b5b600182019050919050565b7f4e487b7100000000000000000000000000000000000000000000000000000000600052602260045260246000fd5b60006002820490506001821680611dce57607f821691505b602082108103611de157611de0611d87565b5b50919050565b600081905092915050565b60008190508160005260206000209050919050565b60008154611e1481611db6565b611e1e8186611de7565b94506001821660008114611e395760018114611e4e57611e81565b60ff1983168652811515820286019350611e81565b611e5785611df2565b60005b83811015611e7957815481890152600182019150602081019050611e5a565b838801955050505b50505092915050565b6000611e968284611e07565b915081905092915050565b600081549050611eb081611db6565b9050919050565b60008190508160005260206000209050919050565b60006020601f8301049050919050565b600082821b905092915050565b600060088302611f197fffffffffffffffffffffffffffffffffffffffffffffffffffffffffffffffff82611edc565b611f238683611edc565b95508019841693508086168417925050509392505050565b6000819050919050565b6000611f60611f5b611f56846116fe565b611f3b565b6116fe565b9050919050565b6000819050919050565b611f7a83611f45565b611f8e611f8682611f67565b848454611ee9565b825550505050565b600090565b611fa3611f96565b611fae818484611f71565b505050565b5b81811015611fd257611fc7600082611f9b565b600181019050611fb4565b5050565b601f82111561201757611fe881611df2565b611ff184611ecc565b81016020851015612000578190505b61201461200c85611ecc565b830182611fb3565b50505b505050565b600082821c905092915050565b600061203a6000198460080261201c565b1980831691505092915050565b60006120538383612029565b9150826002028217905092915050565b818103612071575050612149565b61207a82611ea1565b67ffffffffffffffff8111156120935761209261177c565b5b61209d8254611db6565b6120a8828285611fd6565b6000601f8311600181146120d757600084156120c5578287015490505b6120cf8582612047565b865550612142565b601f1984166120e587611eb7565b96506120f086611df2565b60005b82811015612118578489015482556001820191506001850194506020810190506120f3565b868310156121355784890154612131601f891682612029565b8355505b6001600288020188555050505b5050505050505b565b7f4f6e6c792061646d696e2063616e20706572666f726d2074686973206163746960008201527f6f6e000000000000000000000000000000000000000000000000000000000000602082015250565b60006121a7602283611925565b91506121b28261214b565b604082019050919050565b600060208201905081810360008301526121d68161219a565b9050919050565b60006121e88261191a565b6121f28185611de7565b9350612202818560208601611936565b80840191505092915050565b600061221a82846121dd565b915081905092915050565b7f4e487b7100000000000000000000000000000000000000000000000000000000600052603260045260246000fd5b61225d8261191a565b67ffffffffffffffff8111156122765761227561177c565b5b6122808254611db6565b61228b828285611fd6565b600060209050601f8311600181146122be57600084156122ac578287015190505b6122b68582612047565b86555061231e565b601f1984166122cc86611df2565b60005b828110156122f4578489015182556001820191506020850194506020810190506122cf565b86831015612311578489015161230d601f891682612029565b8355505b6001600288020188555050505b50505050505056fea26469706673582212200228d15b292084a3f924d2121a2878787a3be9b1e4978399cbc7c20addfec44864736f6c63430008130033",
  "immutableReferences": {},
  "source": "// SPDX-License-Identifier: MIT\npragma solidity >=0.5.0 <0.9.0;\n\ncontract VotingSystem{\n    address public admin;\n    string public winningParty;\n    uint public Seats = 0;\n    uint public tv=0;\n    struct Candidate {\n        uint id;\n        string name;\n        string area;\n        string party;\n        uint voteCount;\n    }\n\n    string[] public Ar;\n    struct Area {\n        string name;\n        string leadingParty;\n        uint totalVote;\n    }\n\n    string[] public Pr;\n    struct Party{\n        string name;\n        uint totalSeatsWon;\n        uint totalvotes;\n    }\n\n    mapping(uint => Candidate) public candidates;\n    mapping (string => Area) public areas;\n    mapping (string => Party) public parties;\n\n    uint public candidatesCount;\n    uint public areasCount;\n    uint public partiesCount;\n\n    mapping(address => bool) public voters;\n    //!additional function mapping\n  mapping(string => uint) public totalCandidateVotes;\n  mapping(string => uint) public totalPartyVotes;\n  mapping(string => uint) public totalAreaVotes;\n\n    modifier onlyAdmin() {\n        require(msg.sender == admin, \"Only admin can perform this action\");\n        _;\n    }\n\n    constructor() {\n        admin = msg.sender;\n    }\n\n    function addCandidate(string memory _name, string memory _area, string memory _party) public onlyAdmin {\n        candidatesCount++;\n        candidates[candidatesCount] = Candidate(candidatesCount, _name, _area, _party, 0);\n        if(keccak256(abi.encodePacked(_area)) == keccak256(abi.encodePacked(areas[_area].name))){\n            //\n        }\n        else{\n            areasCount++;\n            areas[_area]=Area(_area,\"\",0);\n            Ar.push(_area);\n        }\n        \n        if(keccak256(abi.encodePacked(_party)) == keccak256(abi.encodePacked(parties[_party].name))){\n            //\n        }\n        else{\n            partiesCount++;\n            parties[_party]=Party(_party,0,0);\n            Pr.push(_party);\n        }\n        \n        \n    }\n\n    // remove candidates\n    function removeCandidate(uint _candidateId) public onlyAdmin {\n        require(_candidateId > 0 && _candidateId <= candidatesCount, \"Invalid candidate ID\");\n        delete candidates[_candidateId];\n        // You might want to implement logic here to reorganize candidate IDs if needed\n     }\n\n    function vote(uint _candidateId) public {\n        require(!voters[msg.sender], \"You have already voted\");\n        require(_candidateId > 0 && _candidateId <= candidatesCount, \"Invalid candidate ID\");\n        Candidate storage candidate = candidates[_candidateId];\n        candidate.voteCount++;\n        voters[msg.sender] = true;\n            parties[candidate.party].totalvotes++;\n    \n        if(areas[candidate.area].totalVote<candidate.voteCount){\n            areas[candidate.area].totalVote=candidate.voteCount;\n            areas[candidate.area].leadingParty=candidate.party;\n        }\n        \n    }\n\n    //! additional function\nfunction calculateTotalVotes() public {\n    // Iterate through candidates and calculate total votes for each candidate\n    for (uint i = 1; i <= candidatesCount; i++) {\n        totalCandidateVotes[candidates[i].name] = candidates[i].voteCount;\n    }\n\n    // Iterate through parties and calculate total votes for each party\n    for (uint i = 0; i < Pr.length; i++) {\n        totalPartyVotes[Pr[i]] = parties[Pr[i]].totalSeatsWon;\n    }\n\n    // Iterate through areas and calculate total votes for each area\n    for (uint i = 0; i < Ar.length; i++) {\n        totalAreaVotes[Ar[i]] = areas[Ar[i]].totalVote;\n    }\n}\nfunction returncandidate(string memory a) public view returns (uint){\n        return (totalCandidateVotes[a]);\n    }\n\n\n    function calculateWinner() public{\n        for(uint i=0;i<areasCount;i++){\n            parties[areas[Ar[i]].leadingParty].totalSeatsWon++;\n        }\n        for(uint i=0;i<partiesCount;i++){\n            if(parties[Pr[i]].totalSeatsWon>Seats){\n                Seats=parties[Pr[i]].totalSeatsWon;\n                winningParty=Pr[i];\n            }\n        }\n        tv=parties[winningParty].totalvotes;\n\n    }\n\n    function getOverallWinningParty() public view returns (string memory, uint, uint) {\n        return(winningParty,Seats, tv);\n    }\n}\n",
  "sourcePath": "X:\\online_voting\\online_voting\\contract\\contracts\\VotingSystem.sol",
  "compiler": {
    "name": "solc",
    "version": "0.8.19+commit.7dd6d404.Emscripten.clang"
  },
  "schemaVersion": "3.4.16",
  "updatedAt": "2024-03-25T19:23:35.315Z",
  "networkType": "ethereum",
  "devdoc": {
    "kind": "dev",
    "methods": {},
    "version": 1
  },
  "userdoc": {
    "kind": "user",
    "methods": {},
    "version": 1
  }
}