{
  "contractName": "VotingSystem",
  "abi": [
    {
      "inputs": [],
      "stateMutability": "nonpayable",
      "type": "constructor"
    },
    {
      "inputs": [
        {
          "internalType": "uint256",
          "name": "",
          "type": "uint256"
        }
      ],
      "name": "Ar",
      "outputs": [
        {
          "internalType": "string",
          "name": "",
          "type": "string"
        }
      ],
      "stateMutability": "view",
      "type": "function",
      "constant": true
    },
    {
      "inputs": [
        {
          "internalType": "uint256",
          "name": "",
          "type": "uint256"
        }
      ],
      "name": "Pr",
      "outputs": [
        {
          "internalType": "string",
          "name": "",
          "type": "string"
        }
      ],
      "stateMutability": "view",
      "type": "function",
      "constant": true
    },
    {
      "inputs": [],
      "name": "Seats",
      "outputs": [
        {
          "internalType": "uint256",
          "name": "",
          "type": "uint256"
        }
      ],
      "stateMutability": "view",
      "type": "function",
      "constant": true
    },
    {
      "inputs": [],
      "name": "admin",
      "outputs": [
        {
          "internalType": "address",
          "name": "",
          "type": "address"
        }
      ],
      "stateMutability": "view",
      "type": "function",
      "constant": true
    },
    {
      "inputs": [
        {
          "internalType": "string",
          "name": "",
          "type": "string"
        }
      ],
      "name": "areas",
      "outputs": [
        {
          "internalType": "string",
          "name": "name",
          "type": "string"
        },
        {
          "internalType": "string",
          "name": "leadingParty",
          "type": "string"
        },
        {
          "internalType": "uint256",
          "name": "totalVote",
          "type": "uint256"
        }
      ],
      "stateMutability": "view",
      "type": "function",
      "constant": true
    },
    {
      "inputs": [],
      "name": "areasCount",
      "outputs": [
        {
          "internalType": "uint256",
          "name": "",
          "type": "uint256"
        }
      ],
      "stateMutability": "view",
      "type": "function",
      "constant": true
    },
    {
      "inputs": [
        {
          "internalType": "uint256",
          "name": "",
          "type": "uint256"
        }
      ],
      "name": "candidates",
      "outputs": [
        {
          "internalType": "uint256",
          "name": "id",
          "type": "uint256"
        },
        {
          "internalType": "string",
          "name": "name",
          "type": "string"
        },
        {
          "internalType": "string",
          "name": "area",
          "type": "string"
        },
        {
          "internalType": "string",
          "name": "party",
          "type": "string"
        },
        {
          "internalType": "uint256",
          "name": "voteCount",
          "type": "uint256"
        }
      ],
      "stateMutability": "view",
      "type": "function",
      "constant": true
    },
    {
      "inputs": [],
      "name": "candidatesCount",
      "outputs": [
        {
          "internalType": "uint256",
          "name": "",
          "type": "uint256"
        }
      ],
      "stateMutability": "view",
      "type": "function",
      "constant": true
    },
    {
      "inputs": [
        {
          "internalType": "string",
          "name": "",
          "type": "string"
        }
      ],
      "name": "parties",
      "outputs": [
        {
          "internalType": "string",
          "name": "name",
          "type": "string"
        },
        {
          "internalType": "uint256",
          "name": "totalSeatsWon",
          "type": "uint256"
        }
      ],
      "stateMutability": "view",
      "type": "function",
      "constant": true
    },
    {
      "inputs": [],
      "name": "partiesCount",
      "outputs": [
        {
          "internalType": "uint256",
          "name": "",
          "type": "uint256"
        }
      ],
      "stateMutability": "view",
      "type": "function",
      "constant": true
    },
    {
      "inputs": [
        {
          "internalType": "string",
          "name": "",
          "type": "string"
        }
      ],
      "name": "totalAreaVotes",
      "outputs": [
        {
          "internalType": "uint256",
          "name": "",
          "type": "uint256"
        }
      ],
      "stateMutability": "view",
      "type": "function",
      "constant": true
    },
    {
      "inputs": [
        {
          "internalType": "string",
          "name": "",
          "type": "string"
        }
      ],
      "name": "totalCandidateVotes",
      "outputs": [
        {
          "internalType": "uint256",
          "name": "",
          "type": "uint256"
        }
      ],
      "stateMutability": "view",
      "type": "function",
      "constant": true
    },
    {
      "inputs": [
        {
          "internalType": "string",
          "name": "",
          "type": "string"
        }
      ],
      "name": "totalPartyVotes",
      "outputs": [
        {
          "internalType": "uint256",
          "name": "",
          "type": "uint256"
        }
      ],
      "stateMutability": "view",
      "type": "function",
      "constant": true
    },
    {
      "inputs": [
        {
          "internalType": "address",
          "name": "",
          "type": "address"
        }
      ],
      "name": "voters",
      "outputs": [
        {
          "internalType": "bool",
          "name": "",
          "type": "bool"
        }
      ],
      "stateMutability": "view",
      "type": "function",
      "constant": true
    },
    {
      "inputs": [],
      "name": "winningParty",
      "outputs": [
        {
          "internalType": "string",
          "name": "",
          "type": "string"
        }
      ],
      "stateMutability": "view",
      "type": "function",
      "constant": true
    },
    {
      "inputs": [
        {
          "internalType": "string",
          "name": "_name",
          "type": "string"
        },
        {
          "internalType": "string",
          "name": "_area",
          "type": "string"
        },
        {
          "internalType": "string",
          "name": "_party",
          "type": "string"
        }
      ],
      "name": "addCandidate",
      "outputs": [],
      "stateMutability": "nonpayable",
      "type": "function"
    },
    {
      "inputs": [
        {
          "internalType": "uint256",
          "name": "_candidateId",
          "type": "uint256"
        }
      ],
      "name": "removeCandidate",
      "outputs": [],
      "stateMutability": "nonpayable",
      "type": "function"
    },
    {
      "inputs": [
        {
          "internalType": "uint256",
          "name": "_candidateId",
          "type": "uint256"
        }
      ],
      "name": "vote",
      "outputs": [],
      "stateMutability": "nonpayable",
      "type": "function"
    },
    {
      "inputs": [],
      "name": "calculateTotalVotes",
      "outputs": [],
      "stateMutability": "nonpayable",
      "type": "function"
    },
    {
      "inputs": [],
      "name": "calculateWinner",
      "outputs": [],
      "stateMutability": "nonpayable",
      "type": "function"
    },
    {
      "inputs": [],
      "name": "getOverallWinningParty",
      "outputs": [
        {
          "internalType": "string",
          "name": "",
          "type": "string"
        },
        {
          "internalType": "uint256",
          "name": "",
          "type": "uint256"
        }
      ],
      "stateMutability": "view",
      "type": "function",
      "constant": true
    }
  ],
  "bytecode": "0x6080604052600060025534801561001557600080fd5b50336000806101000a81548173ffffffffffffffffffffffffffffffffffffffff021916908373ffffffffffffffffffffffffffffffffffffffff160217905550612239806100656000396000f3fe608060405234801561001057600080fd5b50600436106101375760003560e01c8063a9683ba6116100b8578063c56a35401161007c578063c56a354014610379578063ca9da69c14610397578063d4a7de3e146103b6578063de0a7af9146103e8578063ea35e80514610406578063f851a4401461041057610137565b8063a9683ba6146102c0578063aa09ac3c146102de578063ad71f8dc1461030f578063adb61ff01461032b578063ae315fe41461035b57610137565b80636fcb565f116100ff5780636fcb565f146101f657806385aad0b91461020057806387fa81e21461023057806391e48abe14610260578063a3ec138d1461029057610137565b80630121b93f1461013c57806309e9d7e21461015857806327c84ff0146101745780632d35a8a2146101a45780633477ee2e146101c2575b600080fd5b6101566004803603810190610151919061161f565b61042e565b005b610172600480360381019061016d919061161f565b61062c565b005b61018e60048036038101906101899190611792565b610764565b60405161019b91906117ea565b60405180910390f35b6101ac610792565b6040516101b991906117ea565b60405180910390f35b6101dc60048036038101906101d7919061161f565b610798565b6040516101ed959493929190611884565b60405180910390f35b6101fe610966565b005b61021a6004803603810190610215919061161f565b610b1e565b60405161022791906118ec565b60405180910390f35b61024a60048036038101906102459190611792565b610bca565b60405161025791906117ea565b60405180910390f35b61027a6004803603810190610275919061161f565b610bf8565b60405161028791906118ec565b60405180910390f35b6102aa60048036038101906102a5919061196c565b610ca4565b6040516102b791906119b4565b60405180910390f35b6102c8610cc4565b6040516102d591906117ea565b60405180910390f35b6102f860048036038101906102f39190611792565b610cca565b6040516103069291906119cf565b60405180910390f35b610329600480360381019061032491906119ff565b610d8c565b005b61034560048036038101906103409190611792565b61112c565b60405161035291906117ea565b60405180910390f35b61036361115a565b60405161037091906118ec565b60405180910390f35b6103816111e8565b60405161038e91906117ea565b60405180910390f35b61039f6111ee565b6040516103ad9291906119cf565b60405180910390f35b6103d060048036038101906103cb9190611792565b61128b565b6040516103df93929190611aa6565b60405180910390f35b6103f06113db565b6040516103fd91906117ea565b60405180910390f35b61040e6113e1565b005b610418611554565b6040516104259190611afa565b60405180910390f35b600b60003373ffffffffffffffffffffffffffffffffffffffff1673ffffffffffffffffffffffffffffffffffffffff16815260200190815260200160002060009054906101000a900460ff16156104bb576040517f08c379a00000000000000000000000000000000000000000000000000000000081526004016104b290611b61565b60405180910390fd5b6000811180156104cd57506008548111155b61050c576040517f08c379a000000000000000000000000000000000000000000000000000000000815260040161050390611bcd565b60405180910390fd5b600060056000838152602001908152602001600020905080600401600081548092919061053890611c1c565b91905055506001600b60003373ffffffffffffffffffffffffffffffffffffffff1673ffffffffffffffffffffffffffffffffffffffff16815260200190815260200160002060006101000a81548160ff02191690831515021790555080600401546006826002016040516105ad9190611d67565b90815260200160405180910390206002015410156106285780600401546006826002016040516105dd9190611d67565b908152602001604051809103902060020181905550806003016006826002016040516106099190611d67565b908152602001604051809103902060010190816106269190611f40565b505b5050565b60008054906101000a900473ffffffffffffffffffffffffffffffffffffffff1673ffffffffffffffffffffffffffffffffffffffff163373ffffffffffffffffffffffffffffffffffffffff16146106ba576040517f08c379a00000000000000000000000000000000000000000000000000000000081526004016106b19061209a565b60405180910390fd5b6000811180156106cc57506008548111155b61070b576040517f08c379a000000000000000000000000000000000000000000000000000000000815260040161070290611bcd565b60405180910390fd5b600560008281526020019081526020016000206000808201600090556001820160006107379190611578565b6002820160006107479190611578565b6003820160006107579190611578565b6004820160009055505050565b600d818051602081018201805184825260208301602085012081835280955050505050506000915090505481565b60085481565b60056020528060005260406000206000915090508060000154908060010180546107c190611c93565b80601f01602080910402602001604051908101604052809291908181526020018280546107ed90611c93565b801561083a5780601f1061080f5761010080835404028352916020019161083a565b820191906000526020600020905b81548152906001019060200180831161081d57829003601f168201915b50505050509080600201805461084f90611c93565b80601f016020809104026020016040519081016040528092919081815260200182805461087b90611c93565b80156108c85780601f1061089d576101008083540402835291602001916108c8565b820191906000526020600020905b8154815290600101906020018083116108ab57829003601f168201915b5050505050908060030180546108dd90611c93565b80601f016020809104026020016040519081016040528092919081815260200182805461090990611c93565b80156109565780601f1061092b57610100808354040283529160200191610956565b820191906000526020600020905b81548152906001019060200180831161093957829003601f168201915b5050505050908060040154905085565b6000600190505b60085481116109d7576005600082815260200190815260200160002060040154600c600560008481526020019081526020016000206001016040516109b29190611d67565b90815260200160405180910390208190555080806109cf90611c1c565b91505061096d565b5060005b600480549050811015610a79576007600482815481106109fe576109fd6120ba565b5b90600052602060002001604051610a159190611d67565b908152602001604051809103902060010154600d60048381548110610a3d57610a3c6120ba565b5b90600052602060002001604051610a549190611d67565b9081526020016040518091039020819055508080610a7190611c1c565b9150506109db565b5060005b600380549050811015610b1b57600660038281548110610aa057610a9f6120ba565b5b90600052602060002001604051610ab79190611d67565b908152602001604051809103902060020154600e60038381548110610adf57610ade6120ba565b5b90600052602060002001604051610af69190611d67565b9081526020016040518091039020819055508080610b1390611c1c565b915050610a7d565b50565b60038181548110610b2e57600080fd5b906000526020600020016000915090508054610b4990611c93565b80601f0160208091040260200160405190810160405280929190818152602001828054610b7590611c93565b8015610bc25780601f10610b9757610100808354040283529160200191610bc2565b820191906000526020600020905b815481529060010190602001808311610ba557829003601f168201915b505050505081565b600c818051602081018201805184825260208301602085012081835280955050505050506000915090505481565b60048181548110610c0857600080fd5b906000526020600020016000915090508054610c2390611c93565b80601f0160208091040260200160405190810160405280929190818152602001828054610c4f90611c93565b8015610c9c5780601f10610c7157610100808354040283529160200191610c9c565b820191906000526020600020905b815481529060010190602001808311610c7f57829003601f168201915b505050505081565b600b6020528060005260406000206000915054906101000a900460ff1681565b60095481565b600781805160208101820180518482526020830160208501208183528095505050505050600091509050806000018054610d0390611c93565b80601f0160208091040260200160405190810160405280929190818152602001828054610d2f90611c93565b8015610d7c5780601f10610d5157610100808354040283529160200191610d7c565b820191906000526020600020905b815481529060010190602001808311610d5f57829003601f168201915b5050505050908060010154905082565b60008054906101000a900473ffffffffffffffffffffffffffffffffffffffff1673ffffffffffffffffffffffffffffffffffffffff163373ffffffffffffffffffffffffffffffffffffffff1614610e1a576040517f08c379a0000000000000000000000000000000000000000000000000000000008152600401610e119061209a565b60405180910390fd5b60086000815480929190610e2d90611c1c565b91905055506040518060a0016040528060085481526020018481526020018381526020018281526020016000815250600560006008548152602001908152602001600020600082015181600001556020820151816001019081610e9091906120e9565b506040820151816002019081610ea691906120e9565b506060820151816003019081610ebc91906120e9565b5060808201518160040155905050600682604051610eda91906121ec565b9081526020016040518091039020600001604051602001610efb9190611d67565b6040516020818303038152906040528051906020012082604051602001610f2291906121ec565b60405160208183030381529060405280519060200120031561100e5760096000815480929190610f5190611c1c565b919050555060405180606001604052808381526020016040518060200160405280600081525081526020016000815250600683604051610f9191906121ec565b90815260200160405180910390206000820151816000019081610fb491906120e9565b506020820151816001019081610fca91906120e9565b506040820151816002015590505060038290806001815401808255809150506001900390600052602060002001600090919091909150908161100c91906120e9565b505b60078160405161101e91906121ec565b908152602001604051809103902060000160405160200161103f9190611d67565b604051602081830303815290604052805190602001208160405160200161106691906121ec565b60405160208183030381529060405280519060200120031561112757600a600081548092919061109590611c1c565b9190505550604051806040016040528082815260200160008152506007826040516110c091906121ec565b908152602001604051809103902060008201518160000190816110e391906120e9565b506020820151816001015590505060048190806001815401808255809150506001900390600052602060002001600090919091909150908161112591906120e9565b505b505050565b600e818051602081018201805184825260208301602085012081835280955050505050506000915090505481565b6001805461116790611c93565b80601f016020809104026020016040519081016040528092919081815260200182805461119390611c93565b80156111e05780601f106111b5576101008083540402835291602001916111e0565b820191906000526020600020905b8154815290600101906020018083116111c357829003601f168201915b505050505081565b600a5481565b60606000600160025481805461120390611c93565b80601f016020809104026020016040519081016040528092919081815260200182805461122f90611c93565b801561127c5780601f106112515761010080835404028352916020019161127c565b820191906000526020600020905b81548152906001019060200180831161125f57829003601f168201915b50505050509150915091509091565b6006818051602081018201805184825260208301602085012081835280955050505050506000915090508060000180546112c490611c93565b80601f01602080910402602001604051908101604052809291908181526020018280546112f090611c93565b801561133d5780601f106113125761010080835404028352916020019161133d565b820191906000526020600020905b81548152906001019060200180831161132057829003601f168201915b50505050509080600101805461135290611c93565b80601f016020809104026020016040519081016040528092919081815260200182805461137e90611c93565b80156113cb5780601f106113a0576101008083540402835291602001916113cb565b820191906000526020600020905b8154815290600101906020018083116113ae57829003601f168201915b5050505050908060020154905083565b60025481565b60005b600954811015611475576007600660038381548110611406576114056120ba565b5b9060005260206000200160405161141d9190611d67565b908152602001604051809103902060010160405161143b9190611d67565b9081526020016040518091039020600101600081548092919061145d90611c1c565b9190505550808061146d90611c1c565b9150506113e4565b5060005b600a548110156115515760025460076004838154811061149c5761149b6120ba565b5b906000526020600020016040516114b39190611d67565b908152602001604051809103902060010154111561153e576007600482815481106114e1576114e06120ba565b5b906000526020600020016040516114f89190611d67565b90815260200160405180910390206001015460028190555060048181548110611524576115236120ba565b5b906000526020600020016001908161153c9190611f40565b505b808061154990611c1c565b915050611479565b50565b60008054906101000a900473ffffffffffffffffffffffffffffffffffffffff1681565b50805461158490611c93565b6000825580601f1061159657506115b5565b601f0160209004906000526020600020908101906115b491906115b8565b5b50565b5b808211156115d15760008160009055506001016115b9565b5090565b6000604051905090565b600080fd5b600080fd5b6000819050919050565b6115fc816115e9565b811461160757600080fd5b50565b600081359050611619816115f3565b92915050565b600060208284031215611635576116346115df565b5b60006116438482850161160a565b91505092915050565b600080fd5b600080fd5b6000601f19601f8301169050919050565b7f4e487b7100000000000000000000000000000000000000000000000000000000600052604160045260246000fd5b61169f82611656565b810181811067ffffffffffffffff821117156116be576116bd611667565b5b80604052505050565b60006116d16115d5565b90506116dd8282611696565b919050565b600067ffffffffffffffff8211156116fd576116fc611667565b5b61170682611656565b9050602081019050919050565b82818337600083830152505050565b6000611735611730846116e2565b6116c7565b90508281526020810184848401111561175157611750611651565b5b61175c848285611713565b509392505050565b600082601f8301126117795761177861164c565b5b8135611789848260208601611722565b91505092915050565b6000602082840312156117a8576117a76115df565b5b600082013567ffffffffffffffff8111156117c6576117c56115e4565b5b6117d284828501611764565b91505092915050565b6117e4816115e9565b82525050565b60006020820190506117ff60008301846117db565b92915050565b600081519050919050565b600082825260208201905092915050565b60005b8381101561183f578082015181840152602081019050611824565b60008484015250505050565b600061185682611805565b6118608185611810565b9350611870818560208601611821565b61187981611656565b840191505092915050565b600060a08201905061189960008301886117db565b81810360208301526118ab818761184b565b905081810360408301526118bf818661184b565b905081810360608301526118d3818561184b565b90506118e260808301846117db565b9695505050505050565b60006020820190508181036000830152611906818461184b565b905092915050565b600073ffffffffffffffffffffffffffffffffffffffff82169050919050565b60006119398261190e565b9050919050565b6119498161192e565b811461195457600080fd5b50565b60008135905061196681611940565b92915050565b600060208284031215611982576119816115df565b5b600061199084828501611957565b91505092915050565b60008115159050919050565b6119ae81611999565b82525050565b60006020820190506119c960008301846119a5565b92915050565b600060408201905081810360008301526119e9818561184b565b90506119f860208301846117db565b9392505050565b600080600060608486031215611a1857611a176115df565b5b600084013567ffffffffffffffff811115611a3657611a356115e4565b5b611a4286828701611764565b935050602084013567ffffffffffffffff811115611a6357611a626115e4565b5b611a6f86828701611764565b925050604084013567ffffffffffffffff811115611a9057611a8f6115e4565b5b611a9c86828701611764565b9150509250925092565b60006060820190508181036000830152611ac0818661184b565b90508181036020830152611ad4818561184b565b9050611ae360408301846117db565b949350505050565b611af48161192e565b82525050565b6000602082019050611b0f6000830184611aeb565b92915050565b7f596f75206861766520616c726561647920766f74656400000000000000000000600082015250565b6000611b4b601683611810565b9150611b5682611b15565b602082019050919050565b60006020820190508181036000830152611b7a81611b3e565b9050919050565b7f496e76616c69642063616e646964617465204944000000000000000000000000600082015250565b6000611bb7601483611810565b9150611bc282611b81565b602082019050919050565b60006020820190508181036000830152611be681611baa565b9050919050565b7f4e487b7100000000000000000000000000000000000000000000000000000000600052601160045260246000fd5b6000611c27826115e9565b91507fffffffffffffffffffffffffffffffffffffffffffffffffffffffffffffffff8203611c5957611c58611bed565b5b600182019050919050565b7f4e487b7100000000000000000000000000000000000000000000000000000000600052602260045260246000fd5b60006002820490506001821680611cab57607f821691505b602082108103611cbe57611cbd611c64565b5b50919050565b600081905092915050565b60008190508160005260206000209050919050565b60008154611cf181611c93565b611cfb8186611cc4565b94506001821660008114611d165760018114611d2b57611d5e565b60ff1983168652811515820286019350611d5e565b611d3485611ccf565b60005b83811015611d5657815481890152600182019150602081019050611d37565b838801955050505b50505092915050565b6000611d738284611ce4565b915081905092915050565b600081549050611d8d81611c93565b9050919050565b60008190508160005260206000209050919050565b60006020601f8301049050919050565b600082821b905092915050565b600060088302611df67fffffffffffffffffffffffffffffffffffffffffffffffffffffffffffffffff82611db9565b611e008683611db9565b95508019841693508086168417925050509392505050565b6000819050919050565b6000611e3d611e38611e33846115e9565b611e18565b6115e9565b9050919050565b6000819050919050565b611e5783611e22565b611e6b611e6382611e44565b848454611dc6565b825550505050565b600090565b611e80611e73565b611e8b818484611e4e565b505050565b5b81811015611eaf57611ea4600082611e78565b600181019050611e91565b5050565b601f821115611ef457611ec581611ccf565b611ece84611da9565b81016020851015611edd578190505b611ef1611ee985611da9565b830182611e90565b50505b505050565b600082821c905092915050565b6000611f1760001984600802611ef9565b1980831691505092915050565b6000611f308383611f06565b9150826002028217905092915050565b818103611f4e575050612026565b611f5782611d7e565b67ffffffffffffffff811115611f7057611f6f611667565b5b611f7a8254611c93565b611f85828285611eb3565b6000601f831160018114611fb45760008415611fa2578287015490505b611fac8582611f24565b86555061201f565b601f198416611fc287611d94565b9650611fcd86611ccf565b60005b82811015611ff557848901548255600182019150600185019450602081019050611fd0565b86831015612012578489015461200e601f891682611f06565b8355505b6001600288020188555050505b5050505050505b565b7f4f6e6c792061646d696e2063616e20706572666f726d2074686973206163746960008201527f6f6e000000000000000000000000000000000000000000000000000000000000602082015250565b6000612084602283611810565b915061208f82612028565b604082019050919050565b600060208201905081810360008301526120b381612077565b9050919050565b7f4e487b7100000000000000000000000000000000000000000000000000000000600052603260045260246000fd5b6120f282611805565b67ffffffffffffffff81111561210b5761210a611667565b5b6121158254611c93565b612120828285611eb3565b600060209050601f8311600181146121535760008415612141578287015190505b61214b8582611f24565b8655506121b3565b601f19841661216186611ccf565b60005b8281101561218957848901518255600182019150602085019450602081019050612164565b868310156121a657848901516121a2601f891682611f06565b8355505b6001600288020188555050505b505050505050565b60006121c682611805565b6121d08185611cc4565b93506121e0818560208601611821565b80840191505092915050565b60006121f882846121bb565b91508190509291505056fea264697066735822122041407a8bfcb5c29b6d03c0a7aa3ed6af47990b2d8aa01b44cda62ffb011f93c264736f6c63430008130033",
  "immutableReferences": {},
  "source": "// SPDX-License-Identifier: MIT\npragma solidity >=0.5.0 <0.9.0;\n\ncontract VotingSystem{\n    address public admin;\n    string public winningParty;\n    uint public Seats = 0;\n    struct Candidate {\n        uint id;\n        string name;\n        string area;\n        string party;\n        uint voteCount;\n    }\n\n    string[] public Ar;\n    struct Area {\n        string name;\n        string leadingParty;\n        uint totalVote;\n    }\n\n    string[] public Pr;\n    struct Party{\n        string name;\n        uint totalSeatsWon;\n    }\n\n    mapping(uint => Candidate) public candidates;\n    mapping (string => Area) public areas;\n    mapping (string => Party) public parties;\n\n    uint public candidatesCount;\n    uint public areasCount;\n    uint public partiesCount;\n\n    mapping(address => bool) public voters;\n    //!additional function mapping\n  mapping(string => uint) public totalCandidateVotes;\n  mapping(string => uint) public totalPartyVotes;\n  mapping(string => uint) public totalAreaVotes;\n\n    modifier onlyAdmin() {\n        require(msg.sender == admin, \"Only admin can perform this action\");\n        _;\n    }\n\n    constructor() {\n        admin = msg.sender;\n    }\n\n    function addCandidate(string memory _name, string memory _area, string memory _party) public onlyAdmin {\n        candidatesCount++;\n        candidates[candidatesCount] = Candidate(candidatesCount, _name, _area, _party, 0);\n        if(keccak256(abi.encodePacked(_area)) == keccak256(abi.encodePacked(areas[_area].name))){\n            //\n        }\n        else{\n            areasCount++;\n            areas[_area]=Area(_area,\"\",0);\n            Ar.push(_area);\n        }\n        \n        if(keccak256(abi.encodePacked(_party)) == keccak256(abi.encodePacked(parties[_party].name))){\n            //\n        }\n        else{\n            partiesCount++;\n            parties[_party]=Party(_party,0);\n            Pr.push(_party);\n        }\n        \n        \n    }\n\n    // remove candidates\n    function removeCandidate(uint _candidateId) public onlyAdmin {\n        require(_candidateId > 0 && _candidateId <= candidatesCount, \"Invalid candidate ID\");\n        delete candidates[_candidateId];\n        // You might want to implement logic here to reorganize candidate IDs if needed\n     }\n\n    function vote(uint _candidateId) public {\n        require(!voters[msg.sender], \"You have already voted\");\n        require(_candidateId > 0 && _candidateId <= candidatesCount, \"Invalid candidate ID\");\n        Candidate storage candidate = candidates[_candidateId];\n        candidate.voteCount++;\n        voters[msg.sender] = true;\n    \n        if(areas[candidate.area].totalVote<candidate.voteCount){\n            areas[candidate.area].totalVote=candidate.voteCount;\n            areas[candidate.area].leadingParty=candidate.party;\n        }\n        \n    }\n\n    //! additional function\nfunction calculateTotalVotes() public {\n    // Iterate through candidates and calculate total votes for each candidate\n    for (uint i = 1; i <= candidatesCount; i++) {\n        totalCandidateVotes[candidates[i].name] = candidates[i].voteCount;\n    }\n\n    // Iterate through parties and calculate total votes for each party\n    for (uint i = 0; i < Pr.length; i++) {\n        totalPartyVotes[Pr[i]] = parties[Pr[i]].totalSeatsWon;\n    }\n\n    // Iterate through areas and calculate total votes for each area\n    for (uint i = 0; i < Ar.length; i++) {\n        totalAreaVotes[Ar[i]] = areas[Ar[i]].totalVote;\n    }\n}\n\n\n    function calculateWinner() public{\n        for(uint i=0;i<areasCount;i++){\n            parties[areas[Ar[i]].leadingParty].totalSeatsWon++;\n        }\n        for(uint i=0;i<partiesCount;i++){\n            if(parties[Pr[i]].totalSeatsWon>Seats){\n                Seats=parties[Pr[i]].totalSeatsWon;\n                winningParty=Pr[i];\n            }\n        }\n\n    }\n\n    function getOverallWinningParty() public view returns (string memory, uint) {\n        return(winningParty,Seats);\n    }\n}\n",
  "sourcePath": "X:\\online_voting\\online_voting\\contract\\contracts\\VotingSystem.sol",
  "compiler": {
    "name": "solc",
    "version": "0.8.19+commit.7dd6d404.Emscripten.clang"
  },
  "schemaVersion": "3.4.16",
  "updatedAt": "2024-03-23T05:48:17.314Z",
  "networkType": "ethereum",
  "devdoc": {
    "kind": "dev",
    "methods": {},
    "version": 1
  },
  "userdoc": {
    "kind": "user",
    "methods": {},
    "version": 1
  }
}