{
  "contractName": "VotingSystem",
  "abi": [
    {
      "inputs": [],
      "stateMutability": "nonpayable",
      "type": "constructor"
    },
    {
      "inputs": [],
      "name": "admin",
      "outputs": [
        {
          "internalType": "address",
          "name": "",
          "type": "address"
        }
      ],
      "stateMutability": "view",
      "type": "function",
      "constant": true
    },
    {
      "inputs": [
        {
          "internalType": "uint256",
          "name": "",
          "type": "uint256"
        }
      ],
      "name": "candidates",
      "outputs": [
        {
          "internalType": "uint256",
          "name": "id",
          "type": "uint256"
        },
        {
          "internalType": "string",
          "name": "name",
          "type": "string"
        },
        {
          "internalType": "uint256",
          "name": "voteCount",
          "type": "uint256"
        }
      ],
      "stateMutability": "view",
      "type": "function",
      "constant": true
    },
    {
      "inputs": [],
      "name": "candidatesCount",
      "outputs": [
        {
          "internalType": "uint256",
          "name": "",
          "type": "uint256"
        }
      ],
      "stateMutability": "view",
      "type": "function",
      "constant": true
    },
    {
      "inputs": [
        {
          "internalType": "address",
          "name": "",
          "type": "address"
        }
      ],
      "name": "voters",
      "outputs": [
        {
          "internalType": "bool",
          "name": "",
          "type": "bool"
        }
      ],
      "stateMutability": "view",
      "type": "function",
      "constant": true
    },
    {
      "inputs": [
        {
          "internalType": "string",
          "name": "_name",
          "type": "string"
        }
      ],
      "name": "addCandidate",
      "outputs": [],
      "stateMutability": "nonpayable",
      "type": "function"
    },
    {
      "inputs": [
        {
          "internalType": "uint256",
          "name": "_candidateId",
          "type": "uint256"
        }
      ],
      "name": "vote",
      "outputs": [],
      "stateMutability": "nonpayable",
      "type": "function"
    },
    {
      "inputs": [],
      "name": "getTotalVotes",
      "outputs": [
        {
          "internalType": "uint256",
          "name": "",
          "type": "uint256"
        }
      ],
      "stateMutability": "view",
      "type": "function",
      "constant": true
    },
    {
      "inputs": [
        {
          "internalType": "uint256",
          "name": "_candidateId",
          "type": "uint256"
        }
      ],
      "name": "getCandidate",
      "outputs": [
        {
          "internalType": "uint256",
          "name": "",
          "type": "uint256"
        },
        {
          "internalType": "string",
          "name": "",
          "type": "string"
        },
        {
          "internalType": "uint256",
          "name": "",
          "type": "uint256"
        }
      ],
      "stateMutability": "view",
      "type": "function",
      "constant": true
    },
    {
      "inputs": [],
      "name": "getWinner",
      "outputs": [
        {
          "internalType": "string",
          "name": "",
          "type": "string"
        }
      ],
      "stateMutability": "view",
      "type": "function",
      "constant": true
    }
  ],
  "bytecode": "0x608060405234801561001057600080fd5b50336000806101000a81548173ffffffffffffffffffffffffffffffffffffffff021916908373ffffffffffffffffffffffffffffffffffffffff1602179055506110fd806100606000396000f3fe608060405234801561001057600080fd5b50600436106100935760003560e01c8063462e91ec11610066578063462e91ec146101365780638e7ea5b2146101525780639a0e7d6614610170578063a3ec138d1461018e578063f851a440146101be57610093565b80630121b93f146100985780632d35a8a2146100b45780633477ee2e146100d257806335b8e82014610104575b600080fd5b6100b260048036038101906100ad9190610824565b6101dc565b005b6100bc610341565b6040516100c99190610860565b60405180910390f35b6100ec60048036038101906100e79190610824565b610347565b6040516100fb9392919061090b565b60405180910390f35b61011e60048036038101906101199190610824565b6103f9565b60405161012d9392919061090b565b60405180910390f35b610150600480360381019061014b9190610a7e565b61052c565b005b61015a610635565b6040516101679190610ac7565b60405180910390f35b610178610740565b6040516101859190610860565b60405180910390f35b6101a860048036038101906101a39190610b47565b610796565b6040516101b59190610b8f565b60405180910390f35b6101c66107b6565b6040516101d39190610bb9565b60405180910390f35b600360003373ffffffffffffffffffffffffffffffffffffffff1673ffffffffffffffffffffffffffffffffffffffff16815260200190815260200160002060009054906101000a900460ff1615610269576040517f08c379a000000000000000000000000000000000000000000000000000000000815260040161026090610c20565b60405180910390fd5b60008111801561027b57506002548111155b6102ba576040517f08c379a00000000000000000000000000000000000000000000000000000000081526004016102b190610c8c565b60405180910390fd5b6001600082815260200190815260200160002060020160008154809291906102e190610cdb565b91905055506001600360003373ffffffffffffffffffffffffffffffffffffffff1673ffffffffffffffffffffffffffffffffffffffff16815260200190815260200160002060006101000a81548160ff02191690831515021790555050565b60025481565b600160205280600052604060002060009150905080600001549080600101805461037090610d52565b80601f016020809104026020016040519081016040528092919081815260200182805461039c90610d52565b80156103e95780601f106103be576101008083540402835291602001916103e9565b820191906000526020600020905b8154815290600101906020018083116103cc57829003601f168201915b5050505050908060020154905083565b600060606000808411801561041057506002548411155b61044f576040517f08c379a000000000000000000000000000000000000000000000000000000000815260040161044690610c8c565b60405180910390fd5b600160008581526020019081526020016000206000015460016000868152602001908152602001600020600101600160008781526020019081526020016000206002015481805461049f90610d52565b80601f01602080910402602001604051908101604052809291908181526020018280546104cb90610d52565b80156105185780601f106104ed57610100808354040283529160200191610518565b820191906000526020600020905b8154815290600101906020018083116104fb57829003601f168201915b505050505091509250925092509193909250565b60008054906101000a900473ffffffffffffffffffffffffffffffffffffffff1673ffffffffffffffffffffffffffffffffffffffff163373ffffffffffffffffffffffffffffffffffffffff16146105ba576040517f08c379a00000000000000000000000000000000000000000000000000000000081526004016105b190610df5565b60405180910390fd5b600260008154809291906105cd90610cdb565b91905055506040518060600160405280600254815260200182815260200160008152506001600060025481526020019081526020016000206000820151816000015560208201518160010190816106249190610fc1565b506040820151816002015590505050565b6060600060606000600190505b600254811161073757826001600083815260200190815260200160002060020154111561072457600160008281526020019081526020016000206002015492506001600082815260200190815260200160002060010180546106a390610d52565b80601f01602080910402602001604051908101604052809291908181526020018280546106cf90610d52565b801561071c5780601f106106f15761010080835404028352916020019161071c565b820191906000526020600020905b8154815290600101906020018083116106ff57829003601f168201915b505050505091505b808061072f90610cdb565b915050610642565b50809250505090565b600080600090506000600190505b600254811161078e576001600082815260200190815260200160002060020154826107799190611093565b9150808061078690610cdb565b91505061074e565b508091505090565b60036020528060005260406000206000915054906101000a900460ff1681565b60008054906101000a900473ffffffffffffffffffffffffffffffffffffffff1681565b6000604051905090565b600080fd5b600080fd5b6000819050919050565b610801816107ee565b811461080c57600080fd5b50565b60008135905061081e816107f8565b92915050565b60006020828403121561083a576108396107e4565b5b60006108488482850161080f565b91505092915050565b61085a816107ee565b82525050565b60006020820190506108756000830184610851565b92915050565b600081519050919050565b600082825260208201905092915050565b60005b838110156108b557808201518184015260208101905061089a565b60008484015250505050565b6000601f19601f8301169050919050565b60006108dd8261087b565b6108e78185610886565b93506108f7818560208601610897565b610900816108c1565b840191505092915050565b60006060820190506109206000830186610851565b818103602083015261093281856108d2565b90506109416040830184610851565b949350505050565b600080fd5b600080fd5b7f4e487b7100000000000000000000000000000000000000000000000000000000600052604160045260246000fd5b61098b826108c1565b810181811067ffffffffffffffff821117156109aa576109a9610953565b5b80604052505050565b60006109bd6107da565b90506109c98282610982565b919050565b600067ffffffffffffffff8211156109e9576109e8610953565b5b6109f2826108c1565b9050602081019050919050565b82818337600083830152505050565b6000610a21610a1c846109ce565b6109b3565b905082815260208101848484011115610a3d57610a3c61094e565b5b610a488482856109ff565b509392505050565b600082601f830112610a6557610a64610949565b5b8135610a75848260208601610a0e565b91505092915050565b600060208284031215610a9457610a936107e4565b5b600082013567ffffffffffffffff811115610ab257610ab16107e9565b5b610abe84828501610a50565b91505092915050565b60006020820190508181036000830152610ae181846108d2565b905092915050565b600073ffffffffffffffffffffffffffffffffffffffff82169050919050565b6000610b1482610ae9565b9050919050565b610b2481610b09565b8114610b2f57600080fd5b50565b600081359050610b4181610b1b565b92915050565b600060208284031215610b5d57610b5c6107e4565b5b6000610b6b84828501610b32565b91505092915050565b60008115159050919050565b610b8981610b74565b82525050565b6000602082019050610ba46000830184610b80565b92915050565b610bb381610b09565b82525050565b6000602082019050610bce6000830184610baa565b92915050565b7f596f75206861766520616c726561647920766f74656400000000000000000000600082015250565b6000610c0a601683610886565b9150610c1582610bd4565b602082019050919050565b60006020820190508181036000830152610c3981610bfd565b9050919050565b7f496e76616c69642063616e646964617465204944000000000000000000000000600082015250565b6000610c76601483610886565b9150610c8182610c40565b602082019050919050565b60006020820190508181036000830152610ca581610c69565b9050919050565b7f4e487b7100000000000000000000000000000000000000000000000000000000600052601160045260246000fd5b6000610ce6826107ee565b91507fffffffffffffffffffffffffffffffffffffffffffffffffffffffffffffffff8203610d1857610d17610cac565b5b600182019050919050565b7f4e487b7100000000000000000000000000000000000000000000000000000000600052602260045260246000fd5b60006002820490506001821680610d6a57607f821691505b602082108103610d7d57610d7c610d23565b5b50919050565b7f4f6e6c792061646d696e2063616e20706572666f726d2074686973206163746960008201527f6f6e000000000000000000000000000000000000000000000000000000000000602082015250565b6000610ddf602283610886565b9150610dea82610d83565b604082019050919050565b60006020820190508181036000830152610e0e81610dd2565b9050919050565b60008190508160005260206000209050919050565b60006020601f8301049050919050565b600082821b905092915050565b600060088302610e777fffffffffffffffffffffffffffffffffffffffffffffffffffffffffffffffff82610e3a565b610e818683610e3a565b95508019841693508086168417925050509392505050565b6000819050919050565b6000610ebe610eb9610eb4846107ee565b610e99565b6107ee565b9050919050565b6000819050919050565b610ed883610ea3565b610eec610ee482610ec5565b848454610e47565b825550505050565b600090565b610f01610ef4565b610f0c818484610ecf565b505050565b5b81811015610f3057610f25600082610ef9565b600181019050610f12565b5050565b601f821115610f7557610f4681610e15565b610f4f84610e2a565b81016020851015610f5e578190505b610f72610f6a85610e2a565b830182610f11565b50505b505050565b600082821c905092915050565b6000610f9860001984600802610f7a565b1980831691505092915050565b6000610fb18383610f87565b9150826002028217905092915050565b610fca8261087b565b67ffffffffffffffff811115610fe357610fe2610953565b5b610fed8254610d52565b610ff8828285610f34565b600060209050601f83116001811461102b5760008415611019578287015190505b6110238582610fa5565b86555061108b565b601f19841661103986610e15565b60005b828110156110615784890151825560018201915060208501945060208101905061103c565b8683101561107e578489015161107a601f891682610f87565b8355505b6001600288020188555050505b505050505050565b600061109e826107ee565b91506110a9836107ee565b92508282019050808211156110c1576110c0610cac565b5b9291505056fea2646970667358221220487f4d2e92b5e6f2a2cc396e0c52cc09b44f0915b5bfeb331345a91558407dbe64736f6c63430008130033",
  "immutableReferences": {},
  "source": "// SPDX-License-Identifier: MIT\r\npragma solidity >=0.5.0 <0.9.0;\r\n\r\ncontract VotingSystem {\r\n    address public admin;\r\n\r\n    struct Candidate {\r\n        uint id;\r\n        string name;\r\n        uint voteCount;\r\n    }\r\n\r\n    mapping(uint => Candidate) public candidates;\r\n    uint public candidatesCount;\r\n\r\n    mapping(address => bool) public voters;\r\n\r\n    modifier onlyAdmin() {\r\n        require(msg.sender == admin, \"Only admin can perform this action\");\r\n        _;\r\n    }\r\n\r\n    constructor() {\r\n        admin = msg.sender;\r\n    }\r\n\r\n    function addCandidate(string memory _name) public onlyAdmin {\r\n        candidatesCount++;\r\n        candidates[candidatesCount] = Candidate(candidatesCount, _name, 0);\r\n    }\r\n\r\n    function vote(uint _candidateId) public {\r\n        require(!voters[msg.sender], \"You have already voted\");\r\n        require(_candidateId > 0 && _candidateId <= candidatesCount, \"Invalid candidate ID\");\r\n\r\n        candidates[_candidateId].voteCount++;\r\n        voters[msg.sender] = true;\r\n    }\r\n\r\n    function getTotalVotes() public view returns (uint) {\r\n        uint totalVotes = 0;\r\n        for (uint i = 1; i <= candidatesCount; i++) {\r\n            totalVotes += candidates[i].voteCount;\r\n        }\r\n        return totalVotes;\r\n    }\r\n\r\n    function getCandidate(uint _candidateId) public view returns (uint, string memory, uint) {\r\n        require(_candidateId > 0 && _candidateId <= candidatesCount, \"Invalid candidate ID\");\r\n        return (candidates[_candidateId].id, candidates[_candidateId].name, candidates[_candidateId].voteCount);\r\n    }\r\n\r\n    function getWinner() public view returns (string memory) {\r\n        uint winningVoteCount = 0;\r\n        string memory winnerName;\r\n\r\n        for (uint i = 1; i <= candidatesCount; i++) {\r\n            if (candidates[i].voteCount > winningVoteCount) {\r\n                winningVoteCount = candidates[i].voteCount;\r\n                winnerName = candidates[i].name;\r\n            }\r\n        }\r\n\r\n        return winnerName;\r\n    }\r\n}\r\n",
  "sourcePath": "X:\\online_voting\\online_voting\\contract\\contracts\\VotingSystem.sol",
  "compiler": {
    "name": "solc",
    "version": "0.8.19+commit.7dd6d404.Emscripten.clang"
  },
  "schemaVersion": "3.4.16",
  "updatedAt": "2024-03-18T14:15:56.380Z",
  "networkType": "ethereum",
  "devdoc": {
    "kind": "dev",
    "methods": {},
    "version": 1
  },
  "userdoc": {
    "kind": "user",
    "methods": {},
    "version": 1
  }
}