{
  "contractName": "VotingSystem",
  "abi": [
    {
      "inputs": [],
      "stateMutability": "nonpayable",
      "type": "constructor"
    },
    {
      "inputs": [
        {
          "internalType": "uint256",
          "name": "",
          "type": "uint256"
        }
      ],
      "name": "Ar",
      "outputs": [
        {
          "internalType": "string",
          "name": "",
          "type": "string"
        }
      ],
      "stateMutability": "view",
      "type": "function",
      "constant": true
    },
    {
      "inputs": [
        {
          "internalType": "uint256",
          "name": "",
          "type": "uint256"
        }
      ],
      "name": "Pr",
      "outputs": [
        {
          "internalType": "string",
          "name": "",
          "type": "string"
        }
      ],
      "stateMutability": "view",
      "type": "function",
      "constant": true
    },
    {
      "inputs": [],
      "name": "Seats",
      "outputs": [
        {
          "internalType": "uint256",
          "name": "",
          "type": "uint256"
        }
      ],
      "stateMutability": "view",
      "type": "function",
      "constant": true
    },
    {
      "inputs": [],
      "name": "admin",
      "outputs": [
        {
          "internalType": "address",
          "name": "",
          "type": "address"
        }
      ],
      "stateMutability": "view",
      "type": "function",
      "constant": true
    },
    {
      "inputs": [
        {
          "internalType": "string",
          "name": "",
          "type": "string"
        }
      ],
      "name": "areas",
      "outputs": [
        {
          "internalType": "string",
          "name": "name",
          "type": "string"
        },
        {
          "internalType": "string",
          "name": "leadingParty",
          "type": "string"
        },
        {
          "internalType": "uint256",
          "name": "totalVote",
          "type": "uint256"
        }
      ],
      "stateMutability": "view",
      "type": "function",
      "constant": true
    },
    {
      "inputs": [],
      "name": "areasCount",
      "outputs": [
        {
          "internalType": "uint256",
          "name": "",
          "type": "uint256"
        }
      ],
      "stateMutability": "view",
      "type": "function",
      "constant": true
    },
    {
      "inputs": [
        {
          "internalType": "uint256",
          "name": "",
          "type": "uint256"
        }
      ],
      "name": "candidates",
      "outputs": [
        {
          "internalType": "uint256",
          "name": "id",
          "type": "uint256"
        },
        {
          "internalType": "string",
          "name": "name",
          "type": "string"
        },
        {
          "internalType": "string",
          "name": "area",
          "type": "string"
        },
        {
          "internalType": "string",
          "name": "party",
          "type": "string"
        },
        {
          "internalType": "uint256",
          "name": "voteCount",
          "type": "uint256"
        }
      ],
      "stateMutability": "view",
      "type": "function",
      "constant": true
    },
    {
      "inputs": [],
      "name": "candidatesCount",
      "outputs": [
        {
          "internalType": "uint256",
          "name": "",
          "type": "uint256"
        }
      ],
      "stateMutability": "view",
      "type": "function",
      "constant": true
    },
    {
      "inputs": [
        {
          "internalType": "string",
          "name": "",
          "type": "string"
        }
      ],
      "name": "parties",
      "outputs": [
        {
          "internalType": "string",
          "name": "name",
          "type": "string"
        },
        {
          "internalType": "uint256",
          "name": "totalSeatsWon",
          "type": "uint256"
        },
        {
          "internalType": "uint256",
          "name": "totalvotes",
          "type": "uint256"
        }
      ],
      "stateMutability": "view",
      "type": "function",
      "constant": true
    },
    {
      "inputs": [],
      "name": "partiesCount",
      "outputs": [
        {
          "internalType": "uint256",
          "name": "",
          "type": "uint256"
        }
      ],
      "stateMutability": "view",
      "type": "function",
      "constant": true
    },
    {
      "inputs": [
        {
          "internalType": "string",
          "name": "",
          "type": "string"
        }
      ],
      "name": "totalCandidateVotes",
      "outputs": [
        {
          "internalType": "uint256",
          "name": "",
          "type": "uint256"
        }
      ],
      "stateMutability": "view",
      "type": "function",
      "constant": true
    },
    {
      "inputs": [],
      "name": "tv",
      "outputs": [
        {
          "internalType": "uint256",
          "name": "",
          "type": "uint256"
        }
      ],
      "stateMutability": "view",
      "type": "function",
      "constant": true
    },
    {
      "inputs": [
        {
          "internalType": "address",
          "name": "",
          "type": "address"
        }
      ],
      "name": "voters",
      "outputs": [
        {
          "internalType": "bool",
          "name": "",
          "type": "bool"
        }
      ],
      "stateMutability": "view",
      "type": "function",
      "constant": true
    },
    {
      "inputs": [],
      "name": "winningParty",
      "outputs": [
        {
          "internalType": "string",
          "name": "",
          "type": "string"
        }
      ],
      "stateMutability": "view",
      "type": "function",
      "constant": true
    },
    {
      "inputs": [
        {
          "internalType": "string",
          "name": "_name",
          "type": "string"
        },
        {
          "internalType": "string",
          "name": "_area",
          "type": "string"
        },
        {
          "internalType": "string",
          "name": "_party",
          "type": "string"
        }
      ],
      "name": "addCandidate",
      "outputs": [],
      "stateMutability": "nonpayable",
      "type": "function"
    },
    {
      "inputs": [
        {
          "internalType": "uint256",
          "name": "_candidateId",
          "type": "uint256"
        }
      ],
      "name": "removeCandidate",
      "outputs": [],
      "stateMutability": "nonpayable",
      "type": "function"
    },
    {
      "inputs": [
        {
          "internalType": "uint256",
          "name": "_candidateId",
          "type": "uint256"
        }
      ],
      "name": "vote",
      "outputs": [],
      "stateMutability": "nonpayable",
      "type": "function"
    },
    {
      "inputs": [
        {
          "internalType": "string",
          "name": "_candidatename",
          "type": "string"
        }
      ],
      "name": "returnCandidateVotes",
      "outputs": [
        {
          "internalType": "uint256",
          "name": "",
          "type": "uint256"
        }
      ],
      "stateMutability": "view",
      "type": "function",
      "constant": true
    },
    {
      "inputs": [
        {
          "internalType": "string",
          "name": "_areaname",
          "type": "string"
        }
      ],
      "name": "returnAreaWinner",
      "outputs": [
        {
          "internalType": "string",
          "name": "",
          "type": "string"
        },
        {
          "internalType": "uint256",
          "name": "",
          "type": "uint256"
        }
      ],
      "stateMutability": "view",
      "type": "function",
      "constant": true
    },
    {
      "inputs": [],
      "name": "calculateWinner",
      "outputs": [],
      "stateMutability": "nonpayable",
      "type": "function"
    },
    {
      "inputs": [],
      "name": "getOverallWinningParty",
      "outputs": [
        {
          "internalType": "string",
          "name": "",
          "type": "string"
        },
        {
          "internalType": "uint256",
          "name": "",
          "type": "uint256"
        },
        {
          "internalType": "uint256",
          "name": "",
          "type": "uint256"
        }
      ],
      "stateMutability": "view",
      "type": "function",
      "constant": true
    },
    {
      "inputs": [
        {
          "internalType": "string",
          "name": "a",
          "type": "string"
        }
      ],
      "name": "returncandidate",
      "outputs": [
        {
          "internalType": "uint256",
          "name": "",
          "type": "uint256"
        }
      ],
      "stateMutability": "view",
      "type": "function",
      "constant": true
    }
  ],
  "bytecode": "0x60806040526000600255600060035534801561001a57600080fd5b50336000806101000a81548173ffffffffffffffffffffffffffffffffffffffff021916908373ffffffffffffffffffffffffffffffffffffffff1602179055506122f68061006a6000396000f3fe608060405234801561001057600080fd5b50600436106101425760003560e01c8063a9683ba6116100b8578063c56a35401161007c578063c56a3540146103ca578063ca9da69c146103e8578063d4a7de3e14610408578063de0a7af91461043a578063ea35e80514610458578063f851a4401461046257610142565b8063a9683ba614610322578063aa09ac3c14610340578063ad71f8dc14610372578063ae315fe41461038e578063bd8a7322146103ac57610142565b80633477ee2e1161010a5780633477ee2e146101fd57806375e9065c1461023157806385aad0b91461026257806387fa81e21461029257806391e48abe146102c2578063a3ec138d146102f257610142565b80630121b93f1461014757806309e9d7e214610163578063129422361461017f5780632481015f146101af5780632d35a8a2146101df575b600080fd5b610161600480360381019061015c919061169e565b610480565b005b61017d6004803603810190610178919061169e565b6106b8565b005b61019960048036038101906101949190611811565b6107f0565b6040516101a69190611869565b60405180910390f35b6101c960048036038101906101c49190611811565b6108a6565b6040516101d69190611869565b60405180910390f35b6101e76108ce565b6040516101f49190611869565b60405180910390f35b6102176004803603810190610212919061169e565b6108d4565b604051610228959493929190611903565b60405180910390f35b61024b60048036038101906102469190611811565b610aa2565b60405161025992919061196b565b60405180910390f35b61027c6004803603810190610277919061169e565b610b7e565b604051610289919061199b565b60405180910390f35b6102ac60048036038101906102a79190611811565b610c2a565b6040516102b99190611869565b60405180910390f35b6102dc60048036038101906102d7919061169e565b610c58565b6040516102e9919061199b565b60405180910390f35b61030c60048036038101906103079190611a1b565b610d04565b6040516103199190611a63565b60405180910390f35b61032a610d24565b6040516103379190611869565b60405180910390f35b61035a60048036038101906103559190611811565b610d2a565b60405161036993929190611a7e565b60405180910390f35b61038c60048036038101906103879190611abc565b610df2565b005b6103966111a3565b6040516103a3919061199b565b60405180910390f35b6103b4611231565b6040516103c19190611869565b60405180910390f35b6103d2611237565b6040516103df9190611869565b60405180910390f35b6103f061123d565b6040516103ff93929190611a7e565b60405180910390f35b610422600480360381019061041d9190611811565b6112e1565b60405161043193929190611b63565b60405180910390f35b610442611431565b60405161044f9190611869565b60405180910390f35b610460611437565b005b61046a6115d3565b6040516104779190611bb7565b60405180910390f35b600c60003373ffffffffffffffffffffffffffffffffffffffff1673ffffffffffffffffffffffffffffffffffffffff16815260200190815260200160002060009054906101000a900460ff161561050d576040517f08c379a000000000000000000000000000000000000000000000000000000000815260040161050490611c1e565b60405180910390fd5b60008111801561051f57506009548111155b61055e576040517f08c379a000000000000000000000000000000000000000000000000000000000815260040161055590611c8a565b60405180910390fd5b600060066000838152602001908152602001600020905080600401600081548092919061058a90611cd9565b91905055506001600c60003373ffffffffffffffffffffffffffffffffffffffff1673ffffffffffffffffffffffffffffffffffffffff16815260200190815260200160002060006101000a81548160ff0219169083151502179055506008816003016040516105fa9190611e24565b9081526020016040518091039020600201600081548092919061061c90611cd9565b919050555080600401546007826002016040516106399190611e24565b90815260200160405180910390206002015410156106b45780600401546007826002016040516106699190611e24565b908152602001604051809103902060020181905550806003016007826002016040516106959190611e24565b908152602001604051809103902060010190816106b29190611ffd565b505b5050565b60008054906101000a900473ffffffffffffffffffffffffffffffffffffffff1673ffffffffffffffffffffffffffffffffffffffff163373ffffffffffffffffffffffffffffffffffffffff1614610746576040517f08c379a000000000000000000000000000000000000000000000000000000000815260040161073d90612157565b60405180910390fd5b60008111801561075857506009548111155b610797576040517f08c379a000000000000000000000000000000000000000000000000000000000815260040161078e90611c8a565b60405180910390fd5b600660008281526020019081526020016000206000808201600090556001820160006107c391906115f7565b6002820160006107d391906115f7565b6003820160006107e391906115f7565b6004820160009055505050565b600080600190505b600954811161089b578260405160200161081291906121a8565b604051602081830303815290604052805190602001206006600083815260200190815260200160002060010160405160200161084e9190611e24565b60405160208183030381529060405280519060200120036108885760066000828152602001908152602001600020600401549150506108a1565b808061089390611cd9565b9150506107f8565b50600090505b919050565b6000600d826040516108b891906121a8565b9081526020016040518091039020549050919050565b60095481565b60066020528060005260406000206000915090508060000154908060010180546108fd90611d50565b80601f016020809104026020016040519081016040528092919081815260200182805461092990611d50565b80156109765780601f1061094b57610100808354040283529160200191610976565b820191906000526020600020905b81548152906001019060200180831161095957829003601f168201915b50505050509080600201805461098b90611d50565b80601f01602080910402602001604051908101604052809291908181526020018280546109b790611d50565b8015610a045780601f106109d957610100808354040283529160200191610a04565b820191906000526020600020905b8154815290600101906020018083116109e757829003601f168201915b505050505090806003018054610a1990611d50565b80601f0160208091040260200160405190810160405280929190818152602001828054610a4590611d50565b8015610a925780601f10610a6757610100808354040283529160200191610a92565b820191906000526020600020905b815481529060010190602001808311610a7557829003601f168201915b5050505050908060040154905085565b60606000600783604051610ab691906121a8565b9081526020016040518091039020600101600784604051610ad791906121a8565b908152602001604051809103902060020154818054610af590611d50565b80601f0160208091040260200160405190810160405280929190818152602001828054610b2190611d50565b8015610b6e5780601f10610b4357610100808354040283529160200191610b6e565b820191906000526020600020905b815481529060010190602001808311610b5157829003601f168201915b5050505050915091509150915091565b60048181548110610b8e57600080fd5b906000526020600020016000915090508054610ba990611d50565b80601f0160208091040260200160405190810160405280929190818152602001828054610bd590611d50565b8015610c225780601f10610bf757610100808354040283529160200191610c22565b820191906000526020600020905b815481529060010190602001808311610c0557829003601f168201915b505050505081565b600d818051602081018201805184825260208301602085012081835280955050505050506000915090505481565b60058181548110610c6857600080fd5b906000526020600020016000915090508054610c8390611d50565b80601f0160208091040260200160405190810160405280929190818152602001828054610caf90611d50565b8015610cfc5780601f10610cd157610100808354040283529160200191610cfc565b820191906000526020600020905b815481529060010190602001808311610cdf57829003601f168201915b505050505081565b600c6020528060005260406000206000915054906101000a900460ff1681565b600a5481565b600881805160208101820180518482526020830160208501208183528095505050505050600091509050806000018054610d6390611d50565b80601f0160208091040260200160405190810160405280929190818152602001828054610d8f90611d50565b8015610ddc5780601f10610db157610100808354040283529160200191610ddc565b820191906000526020600020905b815481529060010190602001808311610dbf57829003601f168201915b5050505050908060010154908060020154905083565b60008054906101000a900473ffffffffffffffffffffffffffffffffffffffff1673ffffffffffffffffffffffffffffffffffffffff163373ffffffffffffffffffffffffffffffffffffffff1614610e80576040517f08c379a0000000000000000000000000000000000000000000000000000000008152600401610e7790612157565b60405180910390fd5b60096000815480929190610e9390611cd9565b91905055506040518060a0016040528060095481526020018481526020018381526020018281526020016000815250600660006009548152602001908152602001600020600082015181600001556020820151816001019081610ef691906121bf565b506040820151816002019081610f0c91906121bf565b506060820151816003019081610f2291906121bf565b5060808201518160040155905050600782604051610f4091906121a8565b9081526020016040518091039020600001604051602001610f619190611e24565b6040516020818303038152906040528051906020012082604051602001610f8891906121a8565b60405160208183030381529060405280519060200120031561107457600a6000815480929190610fb790611cd9565b919050555060405180606001604052808381526020016040518060200160405280600081525081526020016000815250600783604051610ff791906121a8565b9081526020016040518091039020600082015181600001908161101a91906121bf565b50602082015181600101908161103091906121bf565b506040820151816002015590505060048290806001815401808255809150506001900390600052602060002001600090919091909150908161107291906121bf565b505b60088160405161108491906121a8565b90815260200160405180910390206000016040516020016110a59190611e24565b60405160208183030381529060405280519060200120816040516020016110cc91906121a8565b60405160208183030381529060405280519060200120031561119e57600b60008154809291906110fb90611cd9565b9190505550604051806060016040528082815260200160008152602001600081525060088260405161112d91906121a8565b9081526020016040518091039020600082015181600001908161115091906121bf565b50602082015181600101556040820151816002015590505060058190806001815401808255809150506001900390600052602060002001600090919091909150908161119c91906121bf565b505b505050565b600180546111b090611d50565b80601f01602080910402602001604051908101604052809291908181526020018280546111dc90611d50565b80156112295780601f106111fe57610100808354040283529160200191611229565b820191906000526020600020905b81548152906001019060200180831161120c57829003601f168201915b505050505081565b60035481565b600b5481565b6060600080600160025460035482805461125690611d50565b80601f016020809104026020016040519081016040528092919081815260200182805461128290611d50565b80156112cf5780601f106112a4576101008083540402835291602001916112cf565b820191906000526020600020905b8154815290600101906020018083116112b257829003601f168201915b50505050509250925092509250909192565b60078180516020810182018051848252602083016020850120818352809550505050505060009150905080600001805461131a90611d50565b80601f016020809104026020016040519081016040528092919081815260200182805461134690611d50565b80156113935780601f1061136857610100808354040283529160200191611393565b820191906000526020600020905b81548152906001019060200180831161137657829003601f168201915b5050505050908060010180546113a890611d50565b80601f01602080910402602001604051908101604052809291908181526020018280546113d490611d50565b80156114215780601f106113f657610100808354040283529160200191611421565b820191906000526020600020905b81548152906001019060200180831161140457829003601f168201915b5050505050908060020154905083565b60025481565b60005b600a548110156114cb57600860076004838154811061145c5761145b612291565b5b906000526020600020016040516114739190611e24565b90815260200160405180910390206001016040516114919190611e24565b908152602001604051809103902060010160008154809291906114b390611cd9565b919050555080806114c390611cd9565b91505061143a565b5060005b600b548110156115a7576002546008600583815481106114f2576114f1612291565b5b906000526020600020016040516115099190611e24565b90815260200160405180910390206001015411156115945760086005828154811061153757611536612291565b5b9060005260206000200160405161154e9190611e24565b9081526020016040518091039020600101546002819055506005818154811061157a57611579612291565b5b90600052602060002001600190816115929190611ffd565b505b808061159f90611cd9565b9150506114cf565b50600860016040516115b99190611e24565b908152602001604051809103902060020154600381905550565b60008054906101000a900473ffffffffffffffffffffffffffffffffffffffff1681565b50805461160390611d50565b6000825580601f106116155750611634565b601f0160209004906000526020600020908101906116339190611637565b5b50565b5b80821115611650576000816000905550600101611638565b5090565b6000604051905090565b600080fd5b600080fd5b6000819050919050565b61167b81611668565b811461168657600080fd5b50565b60008135905061169881611672565b92915050565b6000602082840312156116b4576116b361165e565b5b60006116c284828501611689565b91505092915050565b600080fd5b600080fd5b6000601f19601f8301169050919050565b7f4e487b7100000000000000000000000000000000000000000000000000000000600052604160045260246000fd5b61171e826116d5565b810181811067ffffffffffffffff8211171561173d5761173c6116e6565b5b80604052505050565b6000611750611654565b905061175c8282611715565b919050565b600067ffffffffffffffff82111561177c5761177b6116e6565b5b611785826116d5565b9050602081019050919050565b82818337600083830152505050565b60006117b46117af84611761565b611746565b9050828152602081018484840111156117d0576117cf6116d0565b5b6117db848285611792565b509392505050565b600082601f8301126117f8576117f76116cb565b5b81356118088482602086016117a1565b91505092915050565b6000602082840312156118275761182661165e565b5b600082013567ffffffffffffffff81111561184557611844611663565b5b611851848285016117e3565b91505092915050565b61186381611668565b82525050565b600060208201905061187e600083018461185a565b92915050565b600081519050919050565b600082825260208201905092915050565b60005b838110156118be5780820151818401526020810190506118a3565b60008484015250505050565b60006118d582611884565b6118df818561188f565b93506118ef8185602086016118a0565b6118f8816116d5565b840191505092915050565b600060a082019050611918600083018861185a565b818103602083015261192a81876118ca565b9050818103604083015261193e81866118ca565b9050818103606083015261195281856118ca565b9050611961608083018461185a565b9695505050505050565b6000604082019050818103600083015261198581856118ca565b9050611994602083018461185a565b9392505050565b600060208201905081810360008301526119b581846118ca565b905092915050565b600073ffffffffffffffffffffffffffffffffffffffff82169050919050565b60006119e8826119bd565b9050919050565b6119f8816119dd565b8114611a0357600080fd5b50565b600081359050611a15816119ef565b92915050565b600060208284031215611a3157611a3061165e565b5b6000611a3f84828501611a06565b91505092915050565b60008115159050919050565b611a5d81611a48565b82525050565b6000602082019050611a786000830184611a54565b92915050565b60006060820190508181036000830152611a9881866118ca565b9050611aa7602083018561185a565b611ab4604083018461185a565b949350505050565b600080600060608486031215611ad557611ad461165e565b5b600084013567ffffffffffffffff811115611af357611af2611663565b5b611aff868287016117e3565b935050602084013567ffffffffffffffff811115611b2057611b1f611663565b5b611b2c868287016117e3565b925050604084013567ffffffffffffffff811115611b4d57611b4c611663565b5b611b59868287016117e3565b9150509250925092565b60006060820190508181036000830152611b7d81866118ca565b90508181036020830152611b9181856118ca565b9050611ba0604083018461185a565b949350505050565b611bb1816119dd565b82525050565b6000602082019050611bcc6000830184611ba8565b92915050565b7f596f75206861766520616c726561647920766f74656400000000000000000000600082015250565b6000611c0860168361188f565b9150611c1382611bd2565b602082019050919050565b60006020820190508181036000830152611c3781611bfb565b9050919050565b7f496e76616c69642063616e646964617465204944000000000000000000000000600082015250565b6000611c7460148361188f565b9150611c7f82611c3e565b602082019050919050565b60006020820190508181036000830152611ca381611c67565b9050919050565b7f4e487b7100000000000000000000000000000000000000000000000000000000600052601160045260246000fd5b6000611ce482611668565b91507fffffffffffffffffffffffffffffffffffffffffffffffffffffffffffffffff8203611d1657611d15611caa565b5b600182019050919050565b7f4e487b7100000000000000000000000000000000000000000000000000000000600052602260045260246000fd5b60006002820490506001821680611d6857607f821691505b602082108103611d7b57611d7a611d21565b5b50919050565b600081905092915050565b60008190508160005260206000209050919050565b60008154611dae81611d50565b611db88186611d81565b94506001821660008114611dd35760018114611de857611e1b565b60ff1983168652811515820286019350611e1b565b611df185611d8c565b60005b83811015611e1357815481890152600182019150602081019050611df4565b838801955050505b50505092915050565b6000611e308284611da1565b915081905092915050565b600081549050611e4a81611d50565b9050919050565b60008190508160005260206000209050919050565b60006020601f8301049050919050565b600082821b905092915050565b600060088302611eb37fffffffffffffffffffffffffffffffffffffffffffffffffffffffffffffffff82611e76565b611ebd8683611e76565b95508019841693508086168417925050509392505050565b6000819050919050565b6000611efa611ef5611ef084611668565b611ed5565b611668565b9050919050565b6000819050919050565b611f1483611edf565b611f28611f2082611f01565b848454611e83565b825550505050565b600090565b611f3d611f30565b611f48818484611f0b565b505050565b5b81811015611f6c57611f61600082611f35565b600181019050611f4e565b5050565b601f821115611fb157611f8281611d8c565b611f8b84611e66565b81016020851015611f9a578190505b611fae611fa685611e66565b830182611f4d565b50505b505050565b600082821c905092915050565b6000611fd460001984600802611fb6565b1980831691505092915050565b6000611fed8383611fc3565b9150826002028217905092915050565b81810361200b5750506120e3565b61201482611e3b565b67ffffffffffffffff81111561202d5761202c6116e6565b5b6120378254611d50565b612042828285611f70565b6000601f831160018114612071576000841561205f578287015490505b6120698582611fe1565b8655506120dc565b601f19841661207f87611e51565b965061208a86611d8c565b60005b828110156120b25784890154825560018201915060018501945060208101905061208d565b868310156120cf57848901546120cb601f891682611fc3565b8355505b6001600288020188555050505b5050505050505b565b7f4f6e6c792061646d696e2063616e20706572666f726d2074686973206163746960008201527f6f6e000000000000000000000000000000000000000000000000000000000000602082015250565b600061214160228361188f565b915061214c826120e5565b604082019050919050565b6000602082019050818103600083015261217081612134565b9050919050565b600061218282611884565b61218c8185611d81565b935061219c8185602086016118a0565b80840191505092915050565b60006121b48284612177565b915081905092915050565b6121c882611884565b67ffffffffffffffff8111156121e1576121e06116e6565b5b6121eb8254611d50565b6121f6828285611f70565b600060209050601f8311600181146122295760008415612217578287015190505b6122218582611fe1565b865550612289565b601f19841661223786611d8c565b60005b8281101561225f5784890151825560018201915060208501945060208101905061223a565b8683101561227c5784890151612278601f891682611fc3565b8355505b6001600288020188555050505b505050505050565b7f4e487b7100000000000000000000000000000000000000000000000000000000600052603260045260246000fdfea2646970667358221220cde075c25981a086ee525c522b9d0ef5f7d64b9825b65c9751dc9186b1ba2d7f64736f6c63430008130033",
  "immutableReferences": {},
  "source": "// SPDX-License-Identifier: MIT\npragma solidity >=0.5.0 <0.9.0;\n\ncontract VotingSystem {\n    address public admin;\n    string public winningParty;\n    uint public Seats = 0;\n    uint public tv = 0;\n\n    struct Candidate {\n        uint id;\n        string name;\n        string area;\n        string party;\n        uint voteCount;\n    }\n\n    string[] public Ar;\n    struct Area {\n        string name;\n        string leadingParty;\n        uint totalVote;\n    }\n\n    string[] public Pr;\n    struct Party {\n        string name;\n        uint totalSeatsWon;\n        uint totalvotes;\n    }\n\n    mapping(uint => Candidate) public candidates;\n    mapping(string => Area) public areas;\n    mapping(string => Party) public parties;\n\n    uint public candidatesCount;\n    uint public areasCount;\n    uint public partiesCount;\n\n    mapping(address => bool) public voters;\n    mapping(string => uint) public totalCandidateVotes;\n\n    modifier onlyAdmin() {\n        require(msg.sender == admin, \"Only admin can perform this action\");\n        _;\n    }\n\n    constructor() {\n        admin = msg.sender;\n    }\n\n    function addCandidate(string memory _name, string memory _area, string memory _party) public onlyAdmin {\n        candidatesCount++;\n        candidates[candidatesCount] = Candidate(candidatesCount, _name, _area, _party, 0);\n        if (keccak256(abi.encodePacked(_area)) == keccak256(abi.encodePacked(areas[_area].name))) {\n            //\n        } else {\n            areasCount++;\n            areas[_area] = Area(_area, \"\", 0);\n            Ar.push(_area);\n        }\n        \n        if (keccak256(abi.encodePacked(_party)) == keccak256(abi.encodePacked(parties[_party].name))) {\n            //\n        } else {\n            partiesCount++;\n            parties[_party] = Party(_party, 0, 0);\n            Pr.push(_party);\n        }\n    }\n\n    // remove candidates\n    function removeCandidate(uint _candidateId) public onlyAdmin {\n        require(_candidateId > 0 && _candidateId <= candidatesCount, \"Invalid candidate ID\");\n        delete candidates[_candidateId];\n        // You might want to implement logic here to reorganize candidate IDs if needed\n    }\n\n    function vote(uint _candidateId) public {\n        require(!voters[msg.sender], \"You have already voted\");\n        require(_candidateId > 0 && _candidateId <= candidatesCount, \"Invalid candidate ID\");\n        Candidate storage candidate = candidates[_candidateId];\n        candidate.voteCount++;\n        voters[msg.sender] = true;\n\n        parties[candidate.party].totalvotes++;\n\n        if (areas[candidate.area].totalVote < candidate.voteCount) {\n            areas[candidate.area].totalVote = candidate.voteCount;\n            areas[candidate.area].leadingParty = candidate.party;\n        }\n    }\n\n    function returnCandidateVotes(string memory _candidatename) public view returns (uint) {\n        for (uint i = 1; i <= candidatesCount; i++) {\n            if (keccak256(abi.encodePacked(candidates[i].name)) == keccak256(abi.encodePacked(_candidatename))) {\n                return candidates[i].voteCount;\n            }\n        }\n        return 0;\n    }\n\n    function returnAreaWinner(string memory _areaname) public view returns(string memory, uint) {\n        return (areas[_areaname].leadingParty, areas[_areaname].totalVote);\n    }\n\n    function calculateWinner() public {\n        for (uint i = 0; i < areasCount; i++) {\n            parties[areas[Ar[i]].leadingParty].totalSeatsWon++;\n        }\n        for (uint i = 0; i < partiesCount; i++) {\n            if (parties[Pr[i]].totalSeatsWon > Seats) {\n                Seats = parties[Pr[i]].totalSeatsWon;\n                winningParty = Pr[i];\n            }\n        }\n        tv = parties[winningParty].totalvotes;\n    }\n\n    function getOverallWinningParty() public view returns (string memory, uint, uint) {\n        return (winningParty, Seats, tv);\n    }\n\n    function returncandidate(string memory a) public view returns (uint) {\n        return totalCandidateVotes[a];\n    }\n}\n",
  "sourcePath": "X:\\online_voting\\online_voting\\contract\\contracts\\VotingSystem.sol",
  "compiler": {
    "name": "solc",
    "version": "0.8.19+commit.7dd6d404.Emscripten.clang"
  },
  "schemaVersion": "3.4.16",
  "updatedAt": "2024-03-26T14:40:57.600Z",
  "networkType": "ethereum",
  "devdoc": {
    "kind": "dev",
    "methods": {},
    "version": 1
  },
  "userdoc": {
    "kind": "user",
    "methods": {},
    "version": 1
  }
}