{
  "contractName": "VotingSystem",
  "abi": [
    {
      "inputs": [
        {
          "internalType": "uint256",
          "name": "_endDate",
          "type": "uint256"
        }
      ],
      "stateMutability": "nonpayable",
      "type": "constructor"
    },
    {
      "inputs": [],
      "name": "admin",
      "outputs": [
        {
          "internalType": "address",
          "name": "",
          "type": "address"
        }
      ],
      "stateMutability": "view",
      "type": "function"
    },
    {
      "inputs": [
        {
          "internalType": "uint256",
          "name": "",
          "type": "uint256"
        }
      ],
      "name": "candidates",
      "outputs": [
        {
          "internalType": "uint256",
          "name": "id",
          "type": "uint256"
        },
        {
          "internalType": "string",
          "name": "name",
          "type": "string"
        },
        {
          "internalType": "uint256",
          "name": "voteCount",
          "type": "uint256"
        }
      ],
      "stateMutability": "view",
      "type": "function"
    },
    {
      "inputs": [],
      "name": "endDate",
      "outputs": [
        {
          "internalType": "uint256",
          "name": "",
          "type": "uint256"
        }
      ],
      "stateMutability": "view",
      "type": "function"
    },
    {
      "inputs": [
        {
          "internalType": "address",
          "name": "",
          "type": "address"
        }
      ],
      "name": "voters",
      "outputs": [
        {
          "internalType": "bool",
          "name": "",
          "type": "bool"
        }
      ],
      "stateMutability": "view",
      "type": "function"
    },
    {
      "inputs": [
        {
          "internalType": "string",
          "name": "_name",
          "type": "string"
        }
      ],
      "name": "addCandidate",
      "outputs": [],
      "stateMutability": "nonpayable",
      "type": "function"
    },
    {
      "inputs": [
        {
          "internalType": "uint256",
          "name": "_candidateId",
          "type": "uint256"
        }
      ],
      "name": "vote",
      "outputs": [],
      "stateMutability": "nonpayable",
      "type": "function"
    },
    {
      "inputs": [],
      "name": "getWinner",
      "outputs": [
        {
          "internalType": "string",
          "name": "",
          "type": "string"
        }
      ],
      "stateMutability": "view",
      "type": "function"
    }
  ],
  "bytecode": "0x608060405234801561000f575f80fd5b506040516200115438038062001154833981810160405281019061003391906100b6565b335f806101000a81548173ffffffffffffffffffffffffffffffffffffffff021916908373ffffffffffffffffffffffffffffffffffffffff16021790555080600181905550506100e1565b5f80fd5b5f819050919050565b61009581610083565b811461009f575f80fd5b50565b5f815190506100b08161008c565b92915050565b5f602082840312156100cb576100ca61007f565b5b5f6100d8848285016100a2565b91505092915050565b61106580620000ef5f395ff3fe608060405234801561000f575f80fd5b506004361061007b575f3560e01c80638e7ea5b2116100595780638e7ea5b2146100e9578063a3ec138d14610107578063c24a0f8b14610137578063f851a440146101555761007b565b80630121b93f1461007f5780633477ee2e1461009b578063462e91ec146100cd575b5f80fd5b610099600480360381019061009491906106b7565b610173565b005b6100b560048036038101906100b091906106b7565b610317565b6040516100c49392919061077b565b60405180910390f35b6100e760048036038101906100e291906108e3565b6103c3565b005b6100f16104d9565b6040516100fe919061092a565b60405180910390f35b610121600480360381019061011c91906109a4565b61062d565b60405161012e91906109e9565b60405180910390f35b61013f61064a565b60405161014c9190610a02565b60405180910390f35b61015d610650565b60405161016a9190610a2a565b60405180910390f35b60015442106101b7576040517f08c379a00000000000000000000000000000000000000000000000000000000081526004016101ae90610a8d565b60405180910390fd5b5f60025f8381526020019081526020015f205f01540361020c576040517f08c379a000000000000000000000000000000000000000000000000000000000815260040161020390610af5565b60405180910390fd5b60035f3373ffffffffffffffffffffffffffffffffffffffff1673ffffffffffffffffffffffffffffffffffffffff1681526020019081526020015f205f9054906101000a900460ff1615610296576040517f08c379a000000000000000000000000000000000000000000000000000000000815260040161028d90610b5d565b60405180910390fd5b60025f8281526020019081526020015f206002015f8154809291906102ba90610ba8565b9190505550600160035f3373ffffffffffffffffffffffffffffffffffffffff1673ffffffffffffffffffffffffffffffffffffffff1681526020019081526020015f205f6101000a81548160ff02191690831515021790555050565b6002602052805f5260405f205f91509050805f01549080600101805461033c90610c1c565b80601f016020809104026020016040519081016040528092919081815260200182805461036890610c1c565b80156103b35780601f1061038a576101008083540402835291602001916103b3565b820191905f5260205f20905b81548152906001019060200180831161039657829003601f168201915b5050505050908060020154905083565b5f8054906101000a900473ffffffffffffffffffffffffffffffffffffffff1673ffffffffffffffffffffffffffffffffffffffff163373ffffffffffffffffffffffffffffffffffffffff1614610450576040517f08c379a000000000000000000000000000000000000000000000000000000000815260040161044790610cbc565b60405180910390fd5b5f4282604051602001610464929190610d34565b604051602081830303815290604052805190602001205f1c905060405180606001604052808281526020018381526020015f81525060025f8381526020019081526020015f205f820151815f015560208201518160010190816104c79190610ef8565b50604082015181600201559050505050565b6060600154421015610520576040517f08c379a000000000000000000000000000000000000000000000000000000000815260040161051790611011565b60405180910390fd5b5f60605f5b600a811015610624575f8190505f60025f8381526020019081526020015f206040518060600160405290815f820154815260200160018201805461056890610c1c565b80601f016020809104026020016040519081016040528092919081815260200182805461059490610c1c565b80156105df5780601f106105b6576101008083540402835291602001916105df565b820191905f5260205f20905b8154815290600101906020018083116105c257829003601f168201915b505050505081526020016002820154815250509050848160400151111561060f5780604001519450806020015193505b5050808061061c90610ba8565b915050610525565b50809250505090565b6003602052805f5260405f205f915054906101000a900460ff1681565b60015481565b5f8054906101000a900473ffffffffffffffffffffffffffffffffffffffff1681565b5f604051905090565b5f80fd5b5f80fd5b5f819050919050565b61069681610684565b81146106a0575f80fd5b50565b5f813590506106b18161068d565b92915050565b5f602082840312156106cc576106cb61067c565b5b5f6106d9848285016106a3565b91505092915050565b6106eb81610684565b82525050565b5f81519050919050565b5f82825260208201905092915050565b5f5b8381101561072857808201518184015260208101905061070d565b5f8484015250505050565b5f601f19601f8301169050919050565b5f61074d826106f1565b61075781856106fb565b935061076781856020860161070b565b61077081610733565b840191505092915050565b5f60608201905061078e5f8301866106e2565b81810360208301526107a08185610743565b90506107af60408301846106e2565b949350505050565b5f80fd5b5f80fd5b7f4e487b71000000000000000000000000000000000000000000000000000000005f52604160045260245ffd5b6107f582610733565b810181811067ffffffffffffffff82111715610814576108136107bf565b5b80604052505050565b5f610826610673565b905061083282826107ec565b919050565b5f67ffffffffffffffff821115610851576108506107bf565b5b61085a82610733565b9050602081019050919050565b828183375f83830152505050565b5f61088761088284610837565b61081d565b9050828152602081018484840111156108a3576108a26107bb565b5b6108ae848285610867565b509392505050565b5f82601f8301126108ca576108c96107b7565b5b81356108da848260208601610875565b91505092915050565b5f602082840312156108f8576108f761067c565b5b5f82013567ffffffffffffffff81111561091557610914610680565b5b610921848285016108b6565b91505092915050565b5f6020820190508181035f8301526109428184610743565b905092915050565b5f73ffffffffffffffffffffffffffffffffffffffff82169050919050565b5f6109738261094a565b9050919050565b61098381610969565b811461098d575f80fd5b50565b5f8135905061099e8161097a565b92915050565b5f602082840312156109b9576109b861067c565b5b5f6109c684828501610990565b91505092915050565b5f8115159050919050565b6109e3816109cf565b82525050565b5f6020820190506109fc5f8301846109da565b92915050565b5f602082019050610a155f8301846106e2565b92915050565b610a2481610969565b82525050565b5f602082019050610a3d5f830184610a1b565b92915050565b7f566f74696e672068617320656e646564000000000000000000000000000000005f82015250565b5f610a776010836106fb565b9150610a8282610a43565b602082019050919050565b5f6020820190508181035f830152610aa481610a6b565b9050919050565b7f496e76616c69642063616e6469646174650000000000000000000000000000005f82015250565b5f610adf6011836106fb565b9150610aea82610aab565b602082019050919050565b5f6020820190508181035f830152610b0c81610ad3565b9050919050565b7f596f75206861766520616c726561647920766f746564000000000000000000005f82015250565b5f610b476016836106fb565b9150610b5282610b13565b602082019050919050565b5f6020820190508181035f830152610b7481610b3b565b9050919050565b7f4e487b71000000000000000000000000000000000000000000000000000000005f52601160045260245ffd5b5f610bb282610684565b91507fffffffffffffffffffffffffffffffffffffffffffffffffffffffffffffffff8203610be457610be3610b7b565b5b600182019050919050565b7f4e487b71000000000000000000000000000000000000000000000000000000005f52602260045260245ffd5b5f6002820490506001821680610c3357607f821691505b602082108103610c4657610c45610bef565b5b50919050565b7f4f6e6c792061646d696e2063616e20706572666f726d2074686973206f7065725f8201527f6174696f6e000000000000000000000000000000000000000000000000000000602082015250565b5f610ca66025836106fb565b9150610cb182610c4c565b604082019050919050565b5f6020820190508181035f830152610cd381610c9a565b9050919050565b5f819050919050565b610cf4610cef82610684565b610cda565b82525050565b5f81905092915050565b5f610d0e826106f1565b610d188185610cfa565b9350610d2881856020860161070b565b80840191505092915050565b5f610d3f8285610ce3565b602082019150610d4f8284610d04565b91508190509392505050565b5f819050815f5260205f209050919050565b5f6020601f8301049050919050565b5f82821b905092915050565b5f60088302610db77fffffffffffffffffffffffffffffffffffffffffffffffffffffffffffffffff82610d7c565b610dc18683610d7c565b95508019841693508086168417925050509392505050565b5f819050919050565b5f610dfc610df7610df284610684565b610dd9565b610684565b9050919050565b5f819050919050565b610e1583610de2565b610e29610e2182610e03565b848454610d88565b825550505050565b5f90565b610e3d610e31565b610e48818484610e0c565b505050565b5b81811015610e6b57610e605f82610e35565b600181019050610e4e565b5050565b601f821115610eb057610e8181610d5b565b610e8a84610d6d565b81016020851015610e99578190505b610ead610ea585610d6d565b830182610e4d565b50505b505050565b5f82821c905092915050565b5f610ed05f1984600802610eb5565b1980831691505092915050565b5f610ee88383610ec1565b9150826002028217905092915050565b610f01826106f1565b67ffffffffffffffff811115610f1a57610f196107bf565b5b610f248254610c1c565b610f2f828285610e6f565b5f60209050601f831160018114610f60575f8415610f4e578287015190505b610f588582610edd565b865550610fbf565b601f198416610f6e86610d5b565b5f5b82811015610f9557848901518255600182019150602085019450602081019050610f70565b86831015610fb25784890151610fae601f891682610ec1565b8355505b6001600288020188555050505b505050505050565b7f566f74696e6720686173206e6f7420656e6465642079657400000000000000005f82015250565b5f610ffb6018836106fb565b915061100682610fc7565b602082019050919050565b5f6020820190508181035f83015261102881610fef565b905091905056fea264697066735822122020e23ad4a07c36083ea51fd53b780e409ed801a21d87c9f3051b4496bb41edcd64736f6c63430008150033",
  "immutableReferences": {},
  "source": "// SPDX-License-Identifier: MIT\r\npragma solidity ^0.8.0;\r\n\r\ncontract VotingSystem {\r\n    // Address of the contract administrator\r\n    address public admin;\r\n\r\n    // Timestamp representing the voting end date\r\n    uint256 public endDate;\r\n\r\n    // Structure to store candidate information\r\n    struct Candidate {\r\n        uint256 id;\r\n        string name;\r\n        uint256 voteCount;\r\n    }\r\n\r\n    // Mapping of candidate IDs to candidate structs\r\n    mapping(uint256 => Candidate) public candidates;\r\n\r\n    // Mapping of addresses to voting status (true if voted)\r\n    mapping(address => bool) public voters;\r\n\r\n    // Modifier to restrict functions to the contract administrator\r\n    modifier onlyAdmin() {\r\n        require(msg.sender == admin, \"Only admin can perform this operation\");\r\n        _;\r\n    }\r\n\r\n    // Constructor to set the administrator and end date\r\n    constructor(uint256 _endDate) {\r\n        admin = msg.sender;\r\n        endDate = _endDate;\r\n    }\r\n\r\n    // Function to add a candidate by the administrator\r\n    function addCandidate(string memory _name) public onlyAdmin {\r\n        uint256 candidateId = uint256(keccak256(abi.encodePacked(block.timestamp, _name)));\r\n        candidates[candidateId] = Candidate(candidateId, _name, 0);\r\n    }\r\n\r\n    // Function to cast a vote for a candidate\r\n    function vote(uint256 _candidateId) public {\r\n        require(block.timestamp < endDate, \"Voting has ended\");\r\n        require(candidates[_candidateId].id != 0, \"Invalid candidate\");\r\n        require(!voters[msg.sender], \"You have already voted\");\r\n\r\n        candidates[_candidateId].voteCount++;\r\n        voters[msg.sender] = true;\r\n    }\r\n\r\n    // Function to determine the winner after voting has ended\r\n    function getWinner() public view returns (string memory) {\r\n        require(block.timestamp >= endDate, \"Voting has not ended yet\");\r\n\r\n        uint256 maxVoteCount = 0;\r\n        string memory winnerName;\r\n\r\n        // Iterate through each candidate in the mapping\r\n        for (uint256 i = 0; i < 10; i++){\r\n            uint256 candidateId = i;\r\n            Candidate memory candidate = candidates[candidateId];\r\n            if (candidate.voteCount > maxVoteCount) {\r\n                maxVoteCount = candidate.voteCount;\r\n                winnerName = candidate.name;\r\n            }\r\n        }\r\n\r\n        return winnerName;\r\n    }\r\n}\r\n",
  "sourcePath": "X:\\online_voting\\smart_contract\\contracts\\VotingSystem.sol",
  "compiler": {
    "name": "solc",
    "version": "0.8.21+commit.d9974bed.Emscripten.clang"
  },
  "schemaVersion": "3.4.16",
  "updatedAt": "2024-03-12T15:00:26.545Z",
  "devdoc": {
    "kind": "dev",
    "methods": {},
    "version": 1
  },
  "userdoc": {
    "kind": "user",
    "methods": {},
    "version": 1
  }
}